:10000000D0030120C90A0000650B0000650B000049
:10001000650B0000650B0000650B00000000000090
:10002000000000000000000000000000650B000060
:10003000650B000000000000650B000011040000CB
:10004000650B0000650B0000650B0000650B0000F0
:10005000650B0000650B0000650B0000650B0000E0
:10006000650B0000650B0000650B0000650B0000D0
:10007000650B0000650B0000650B0000650B0000C0
:10008000650B0000650B0000650B0000650B0000B0
:10009000650B0000650B0000650B0000650B0000A0
:1000A000650B0000650B0000650B0000650B000090
:1000B000650B0000650B0000650B0000650B000080
:1000C000650B0000650B0000650B0000650B000070
:1000D000650B0000650B0000650B0000650B000060
:1000E000650B0000650B0000000000000000000030
:1000F00000000000650B0000650B0000650B0000B0
:10010000650B0000650B0000650B0000650B00002F
:10011000650B0000650B0000650B0000650B00001F
:10012000650B0000650B0000650B0000650B00000F
:10013000650B0000650B0000650B0000650B0000FF
:10014000650B0000650B0000650B0000650B0000EF
:10015000650B0000650B00000000000000000000BF
:10016000000000000000000000000000000000008F
:100170000000000000000000650B0000650B00009F
:10018000650B0000650B0000650B0000650B0000AF
:10019000000000004506000079060000650B000025
:1001A000650B0000650B0000650B0000650B00008F
:1001B000650B0000650B0000650B0000650B00007F
:1001C000650B0000650B0000650B0000650B00006F
:1001D000650B0000650B0000650B0000650B00005F
:1001E000650B0000650B0000650B0000650B00004F
:1001F000650B0000650B0000650B0000650B00003F
:10020000650B00000000000000000000650B00000E
:10021000650B0000650B0000650B0000650B00001E
:10022000650B0000650B0000650B0000650B00000E
:10023000650B0000650B0000650B0000650B0000FE
:10024000650B0000650B0000650B0000650B0000EE
:10025000650B0000650B0000650B0000650B0000DE
:100260000348044B834202D0034B03B11847704745
:10027000FC110000FC110000000000000548064BC6
:100280001B1AD90F01EBA301491002D0034B03B194
:1002900018477047FC110000FC110000000000002E
:1002A00010B5064C237843B9FFF7DAFF044B13B1BE
:1002B0000448AFF300800123237010BD0800002024
:1002C00000000000FC11000008B5054B1BB10549FA
:1002D0000548AFF30080BDE80840FFF7CFBF00BF7F
:1002E000000000000C000020FC11000080B483B06E
:1002F00000AF0346FB80B7F90630002B0BDBFB8811
:1003000003F01F020649B7F906305B09012000FA25
:1003100002F241F8232000BF0C37BD4680BC704775
:1003200000E100E080B483B000AF03463960FB8099
:10033000B7F90630002B0ADB3B68DAB20C49B7F993
:1003400006305201D2B20B4483F800230AE03B6826
:10035000DAB20849FB8803F00F03043B5201D2B222
:100360000B441A7600BF0C37BD4680BC704700BFF7
:1003700000E100E000ED00E080B582B000AF786001
:100380007B68013BB3F1807F01D301230FE00A4A70
:100390007B68013B536007214FF0FF30FFF7C2FF3E
:1003A000054B00229A60044B07221A60002318466E
:1003B0000837BD4680BD00BF10E000E080B483B0C8
:1003C00000AF4FF47E237B607B681A78074B1A706E
:1003D0007B685A78064B1A707B689A78054B1A70BE
:1003E00000BF0C37BD4680BC704700BF0000002036
:1003F000010000202A00002080B500AF4FF0FF3040
:10040000FFF774FF4BF68030FFF7B6FF00BF80BDEB
:1004100080B400AF044B1B680133034A136000BF74
:10042000BD4680BC704700BF2400002080B400AFF0
:10043000074B84225A60064B022283F84220044B69
:10044000022283F8472000BFBD4680BC704700BF32
:100450000080004180B483B000AF78600D4B1B6A10
:1004600003F00403042B0CBF01230023DAB27B68E2
:100470001A70084B1B6A03F080027B680133802AE4
:100480000CBF01220022D2B21A7000BF0C37BD4649
:1004900080BC70470080004180B483B000AF034649
:1004A000FB71044AFB79537700BF0C37BD4680BC13
:1004B000704700BF003C004080B400AF264B4FF4B3
:1004C00000629A60244B4FF400629A61224B93F8C9
:1004D0004B30DBB2204A43F00103DBB282F84B30F1
:1004E0001D4B93F83530DBB21B4A43F04003DBB2BF
:1004F00082F83530194B1B781B04194A43F4837377
:10050000136300BF164B5B6803F04003402BF9D028
:10051000134B4422C3F8A42000BF114BD3F8A430DE
:1005200003F04003402BF8D10E4B5B690D4A43F4B6
:10053000004353610C4B40F204621A600A4B0222E2
:100540001A73094B1B68084A43F00203136000BF8B
:10055000BD4680BC704700BF008000412A000020DB
:10056000001C004000080040003C004080B500AF87
:100570002C4B4FF48042C3F884202A4B052283F889
:10058000CE20284B4FF48042C3F89820264B9B691D
:10059000254A43F080039361244B0122C3F86C2168
:1005A000224B4FF408721A621E4B002283F8B720C8
:1005B0001F4B4FF080721A621D4B4FF480429A60BD
:1005C0001B4B12221A701B4B1B4A5A6300BF194B5C
:1005D0005B6803F08003802BF9D0164B4522C3F8EB
:1005E000E42000BF134BD3F8E43003F04003402B6A
:1005F000F8D10D4B9B690C4A43F4006393610F4B98
:100600004FF480321A620D4B4FF001129A620B4B7D
:100610000B4A1A605620FFF769FE5520FFF766FE69
:1006200000BF80BD008000410008004000E00041A4
:1006300000280040001C0040060104000060014149
:100640000200000180B400AF094BDB6A03F0010334
:10065000012B08D1074B00221A80054BDB6A044AA4
:1006600043F00103D36200BFBD4680BC704700BFAA
:10067000006001412800002080B483B000AF002357
:100680007B60354B5B6C03F5BB531033334AA2FBE5
:1006900003231B0A7B60324B1B780133DAB2304BE9
:1006A0001A702F4B1B78012B02D12B4B00225A635F
:1006B0002B4B1B78032B49D12A4B1A682A4B1B88DA
:1006C00019462A4B53F82130D31A264A1360264B79
:1006D0001B8819464EF660227B68B2FBF3F3234A6F
:1006E00042F82130204B1B881A46204B53F8222019
:1006F0001C4B1B6813441B4A13601B4B1B880133A4
:100700001B4A127893FBF2F101FB02F29B1A9AB298
:10071000154B1A80164B1B781A46164B1B889A42AB
:1007200005D9144B1B8801339AB2124B1A800D4B1A
:100730001B68104A1288B3FBF2F39AB20E4B1A8070
:10074000074B01221A70044B00225A6300BF0C377A
:10075000BD4680BC704700BF00600141F1197605BD
:100760002B0000202C00002030000020340000204E
:1007700001000020340200202800002080B487B04F
:1007800000AFF860B9607A600023FB75BB68022295
:100790001A70FB681B78002B02D00123FB7506E062
:1007A000FB6801331B78002B01D00323FB75FB7D15
:1007B00018461C37BD4680BC7047000080B487B027
:1007C00000AFF860B9607A600123FB75BB681B78E5
:1007D0000133DAB2BB681A70FB681B7883F001033F
:1007E000DBB2002B02D00223FB7518E0BB681B783C
:1007F000022B14D97B681A780C4B1B789A4208D9C3
:100800007B681A78094B1B78D31ADAB27B681A70A6
:1008100002E07B6800221A70BB6800221A70FB7D20
:1008200018461C37BD4680BC704700BF0000002042
:1008300080B485B000AFF860B9607A6000231846D4
:100840001437BD4680BC704780B487B000AFF860F5
:10085000B9607A600323FB75BB681B780133DAB299
:10086000BB681A70FB6801331B7883F00103DBB2AD
:10087000002B02D00423FB751BE0BB681B78022B06
:1008800017D97B681B781A460D4B1B78C3F1FF0301
:100890009A4208DA7B681A78094B1B781344DAB25B
:1008A0007B681A7002E07B68FF221A70BB68002226
:1008B0001A70FB7D18461C37BD4680BC704700BFD0
:1008C0000000002080B485B000AFF860B9607A60A5
:1008D000002318461437BD4680BC704780B500AF72
:1008E0002B4B1B889BB22B4AA2FB03239B099BB279
:1008F000DBB240F2FF121C212A2000F07DFA244BCB
:100900001B889BB2244AA2FB03235B099AB2234BA8
:10091000A3FB0213D9080B469B000B445B00D31AC0
:100920009BB2DBB240F2FF1228212A2000F064FAC9
:10093000174B1B889BB2194AA2FB0323DB089AB210
:10094000164BA3FB0213D9080B469B000B445B001C
:10095000D31A9BB2DBB240F2FF1234212A2000F0FE
:100960004BFA0B4B1B889AB20C4BA3FB0213D90812
:100970000B469B000B445B00D31A9BB2DBB240F2E8
:10098000FF1240212A2000F037FA00BF80BD00BFCF
:1009900028000020D34D62101F85EB51CDCCCCCC6C
:1009A000B0B588B000AF0023FB6102E0FB69013302
:1009B000FB61FB693D4A9342F8DD3D4B3C1D1D4602
:1009C0000FCD0FC42B6823600023FB760023FB7040
:1009D000FF23BB70BB78BB7600233B7000237B708A
:1009E000344B02225A70FFF707FDFFF7E7FC324B4A
:1009F0004FF480429A60304B4FF480429A6162B665
:100A000000BFFFF713FDFFF757FDFFF7AFFDBB7802
:100A10001846FFF741FD00F0A1FA30BF274B1A68D6
:100A2000274BA3FB02135B094FF4FA7101FB03F39D
:100A3000D31A002B03D1204B4FF48042DA611F4BB5
:100A40001A68204BA3FB02131B09322101FB03F39D
:100A5000D31A002B19D13B461846FFF7FBFCFB7E4F
:100A60009B0020333B4453F81C3CBA1CF91C38460D
:100A700098470346FB76BB78BA7E9A4205D0BB788E
:100A80001846FFF709FDBB78BB760C4B1A680C4B78
:100A9000A3FB02135B094FF4FA7101FB03F3D31AB2
:100AA000002BBAD1FFF71AFFB7E700BF9F860100FE
:100AB0004C11000000040040008000412400002090
:100AC000D34D62101F85EB5180B582B000AF1C4B37
:100AD0007B601C4B3B607A683B689A420CD007E015
:100AE0007A68131D7B603B68191D396012681A60B3
:100AF0003B68154A9342F3D3144B3B6004E03B68D8
:100B00001A1D3A6000221A603B68114A9342F6D3DC
:100B1000104B7B607B68104A23F07F0393600F4B80
:100B2000002B01D00D4B984700F080FA0C4B002BA6
:100B300001D00B4B9847FFF733FF00BFFDE700BF25
:100B4000FC11000000000020080000200800002028
:100B5000D00300200000000000ED00E000000000D5
:100B60000000000080B400AF00BFFDE780B483B098
:100B700000AF0346FB80B7F90630002B0BDBFB8888
:100B800003F01F020649B7F906305B09012000FA9D
:100B900002F241F8232000BF0C37BD4680BC7047ED
:100BA00000E100E090B486B000AF0446084611466C
:100BB0001A462346FB710346BB710B467B711346F5
:100BC0003B717B79002B02D04FF0005300E00023F3
:100BD0007B613B79002B01D0002301E04FF0805373
:100BE0003B61BB79002B02D04FF4003300E00023BF
:100BF000FB60FB79002B01D10123FB710F4AFB68DD
:100C0000536000BF0D4BDB69002BFBD10B4AFB7916
:100C100013737A693B691343084A43F4401343F062
:100C20000E03136000BF054BDB69002BFBD100BF37
:100C300000BF1837BD4690BC704700BF003400406D
:100C400080B400AF074B00221A60064B00225A60A6
:100C500000BF044BDB69002BFBD100BF00BFBD46CA
:100C600080BC70470034004080B500AF3220FFF7F1
:100C70007DFF2D4B2D4ADA6200BF2B4B5B6803F0E2
:100C80002003202BF9D0284B4322C3F8A02000BF1B
:100C9000254BD3F8A03003F04003402BF8D1244B70
:100CA0005B69234A43F400535361224B93F850305D
:100CB000DBB2204A43F00103DBB282F850301D4B17
:100CC00093F83830DBB21B4A43F00203DBB282F800
:100CD0003830184B93F85130DBB2164A43F0010319
:100CE000DBB282F85130134B93F83830DBB2114A43
:100CF00043F02003DBB282F838300E4B93F85330C8
:100D0000DBB20C4A43F00303DBB282F85330094BE9
:100D100093F83930DBB2074A43F02003DBB282F8A4
:100D2000393000BF80BD00BF001C0040060101003B
:100D3000000800400080004180B483B000AF03464B
:100D4000FB710B4B04225A83094B80221A76084A06
:100D5000FB79936200BF064B1B7EDBB203F00203FC
:100D6000002BF8D000BF00BF0C37BD4680BC7047D9
:100D70000034004080B582B000AF0346FB71094BE0
:100D80004FF40072C3F89420FB791846FFF7D4FFA4
:100D9000044B4FF40072C3F8982000BF0837BD46DB
:100DA00080BD00BF0080004180B500AF012300225C
:100DB00000210120FFF7F6FE024B1022C3F8942019
:100DC00000BF80BD0080004180B500AF034B102202
:100DD000C3F89820FFF734FF00BF80BD00800041BA
:100DE00080B500AFFFF7E0FFAF20FFF7C3FFFFF7CD
:100DF000EBFF00BF80BD000090B587B000AF044698
:100E0000084611461A462346FB710346BB710B4642
:100E1000BB801346FB70FB78092B61D8FFF7C4FF3A
:100E200000233B6157E01520FFF7A4FFBB79103387
:100E3000DBB21846FFF780FFBB791833DBB21846E8
:100E4000FFF77AFF7520FFF795FF3B69DBB2FA7970
:100E5000D31ADBB20C33DBB21846FFF76DFF3B69E8
:100E6000DBB2FA79D31ADBB20C33DBB21846FFF7E8
:100E700063FF5C20FFF77EFFFA781B4913465B0097
:100E800013449B00CA183B6913441B78FB7500236D
:100E9000FB601AE097F91730002B02DABB88BB829F
:100EA00001E00023BB82BB8A1B0A9BB2DBB218465F
:100EB000FFF742FFBB8ADBB21846FFF73DFFFB7D21
:100EC0005B00FB75FB680133FB60FB68072BE1DD12
:100ED0003B6901333B613B690B2BA4DDFFF774FFDA
:100EE00000BF1C37BD4690BD6011000080B582B0C8
:100EF00000AFFFF759FF1520FFF73CFF0020FFF779
:100F00001BFF7F20FFF718FF7520FFF733FF00203E
:100F1000FFF712FF7F20FFF70FFF5C20FFF72AFF8C
:100F200000237B6011E000233B6008E00020FFF716
:100F300003FF0020FFF700FF3B6801333B603B6885
:100F40007F2BF3DD7B6801337B607B687F2BEADDE1
:100F5000FFF73AFF00BF0837BD4680BD80B582B0BD
:100F600000AFFFF781FE2F4B4022C3F888202D4BA6
:100F70004022C3F894202B4B4022C3F89820294BE1
:100F80008022C3F88820274B1022C3F88820254BE5
:100F90001022C3F89820234B4FF48072C3F88820A6
:100FA000204B4FF40072C3F888201E4B4FF40072A0
:100FB000C3F898201B4B4FF48072C3F89420194B50
:100FC0008022C3F89820FFF70BFFFFF7EDFEA0206B
:100FD000FFF7D0FE3220FFF7AFFEA120FFF7CAFED9
:100FE0002020FFF7A9FEB220FFF7C4FEA420FFF7E0
:100FF000A3FE0020FFF7A0FE0020FFF79DFEFFF7F5
:1010000075FFFFF7E1FE00237B6002E07B680133A0
:101010007B607B68044A9342F8DD00BF00BF08375D
:10102000BD4680BD008000413F420F0070B50F4BB0
:101030000F4DAB42A3EB050607D0B610002455F8C0
:10104000043B01349847A642F9D800F0C5F8094D91
:10105000094B5E1BAB424FEAA60606D0002455F8AA
:10106000043B01349847A642F9D870BDE411000052
:10107000E4110000E4110000EC110000704700BF13
:10108000704700BF024B13B1024800F005B870472B
:1010900000000000A5100000002301461A46184673
:1010A00000F014B838B5074D074C2C1BA41005D020
:1010B000013C55F8043D9847002CF9D1BDE8384073
:1010C00000F094B8FC110000F81100002DE9F8437D
:1010D0001B4D0646286898460F469146FFF7CEFFFF
:1010E000184B1C681CB3286865681F2D22DC4EB99C
:1010F0006B1C0235636044F82570FFF7C1FF0020C8
:10110000BDE8F88304EB85010123C1F88890D4F889
:101110008821AB401A43022EC4F88821C1F8088107
:10112000E6D1D4F88C211A43C4F88C21E0E7064CB0
:101130001C60D8E7FFF7A4FF4FF0FF30E0E700BFE7
:10114000040000203C020020400200207D07000037
:10115000BD0700003108000049080000C508000074
:101160007E818181999999998181817E7F08080882
:1011700008080808482818087E80808080807E0142
:101180000101017E7E01010101017E010101017E5B
:101190000101010101017E81818181817E010101C5
:1011A00001017E808080807E7E81818181817E8040
:1011B0008080807E02020202020101010101017EA3
:1011C0007E81818181817E818181817E0101010118
:1011D00001017E818181817EF8B500BFF8BC08BC29
:1011E0009E46704785100000C9020000F8B500BF98
:0C11F000F8BC08BC9E467047A10200003D
:0811FC0004100000380200207D
:00000001FF
