:10000000D0010120D9060000750700007507000027
:10001000750700007507000075070000000000006C
:100020000000000000000000000000007507000054
:100030007507000000000000750700008503000040
:1000400075070000750700007507000075070000C0
:1000500075070000750700007507000075070000B0
:1000600075070000750700007507000075070000A0
:100070007507000075070000750700007507000090
:100080007507000075070000750700007507000080
:100090007507000075070000750700007507000070
:1000A0007507000075070000750700007507000060
:1000B0007507000075070000750700007507000050
:1000C0007507000075070000750700007507000040
:1000D0007507000075070000750700007507000030
:1000E0007507000075070000000000000000000018
:1000F000000000007507000075070000750700008C
:1001000075070000750700007507000075070000FF
:1001100075070000750700007507000075070000EF
:1001200075070000750700007507000075070000DF
:1001300075070000750700007507000075070000CF
:1001400075070000750700007507000075070000BF
:1001500075070000750700000000000000000000A7
:10016000000000000000000000000000000000008F
:100170000000000000000000750700007507000087
:10018000750700007507000075070000750700007F
:1001900000000000750700007507000075070000EB
:1001A000750700007507000075070000750700005F
:1001B000750700007507000075070000750700004F
:1001C000750700007507000075070000750700003F
:1001D000750700007507000075070000750700002F
:1001E000750700007507000075070000750700001F
:1001F000750700007507000075070000750700000F
:1002000075070000000000000000000075070000F6
:1002100075070000750700007507000075070000EE
:1002200075070000750700007507000075070000DE
:1002300075070000750700007507000075070000CE
:1002400075070000750700007507000075070000BE
:1002500075070000750700007507000075070000AE
:100260000348044B834202D0034B03B11847704745
:10027000000D0000000D0000000000000548064BC6
:100280001B1AD90F01EBA301491002D0034B03B194
:1002900018477047000D0000000D0000000000002E
:1002A00010B5064C237843B9FFF7DAFF044B13B1BE
:1002B0000448AFF300800123237010BD0800002024
:1002C00000000000000D000008B5054B1BB10549FA
:1002D0000548AFF30080BDE80840FFF7CFBF00BF7F
:1002E000000000000C000020000D000080B483B06E
:1002F00000AF03463960FB80B7F90630002B0ADBFC
:100300003B68DAB20C49B7F906305201D2B20B445D
:1003100083F800230AE03B68DAB20849FB8803F05F
:100320000F03043B5201D2B20B441A7600BF0C37C4
:10033000BD4680BC704700BF00E100E000ED00E07A
:1003400080B582B000AF78607B68013BB3F1807FFD
:1003500001D301230FE00A4A7B68013B5360072168
:100360004FF0FF30FFF7C2FF054B00229A60044BAD
:1003700007221A60002318460837BD4680BD00BF1B
:1003800010E000E080B400AF044B1B680133034A67
:10039000136000BFBD4680BC704700BF2400002032
:1003A00080B483B000AF0B4B02221A7500BF094B1B
:1003B00093F82E30DBB203F00103002BF7D0054B8E
:1003C000B3F840309BB27B607B6818460C37BD4663
:1003D00080BC7047001C004380B582B000AF002392
:1003E0007B6000233B6008E0FFF7DAFF02467B6892
:1003F00013447B603B6801333B603B68632BF3DD58
:100400007B68054A82FB03125211DB17D31A184688
:100410000837BD4680BD00BF1F85EB5180B483B057
:1004200000AF78600C4B1B687A689A420FDA0A4A70
:100430007B681360094B1A68074B1B68D31A084A7C
:1004400082FB03121211DB17D31A064A136000BF96
:100450000C37BD4680BC70470000002028000020FB
:10046000ABAAAA2A2C00002080B483B000AF786029
:100470000D4B1B687A68D21A0C4B1B6892FBF3F386
:100480007B607B68002B01DA00237B607B68602B3C
:1004900001DD60237B607B68DA0F13445B10184634
:1004A0000C37BD4680BC7047000000202C000020A7
:1004B00080B582B000AF00237B6030E07B68D8B2AB
:1004C000384B1B68DBB22F33DBB20022194600F039
:1004D0009AFA7B68D8B2334B1B68DBB2C3F13003A6
:1004E000DBB20022194600F08EFA2E4B1B68DBB2FD
:1004F000C3F13003DBB27A68D1B20022184600F0B3
:1005000082FA284B1B68DBB22F33DBB27A68D1B298
:100510000022184600F077FA7B6801337B607B6825
:100520005F2BCBDD00233B6034E03B68D8B21E4B31
:100530001B68DBB22F33DBB24FF6FF72194600F0B7
:1005400062FA3B68D8B2184B1B68DBB2C3F13003C8
:10055000DBB24FF6FF72194600F055FA124B1B68DA
:10056000DBB2C3F13003DBB23A68D1B24FF6FF72AF
:10057000184600F048FA0C4B1B68DBB22F33DBB295
:100580003A68D1B24FF6FF72184600F03CFA3B6869
:1005900001333B603B685F2BC7DD00BF00BF0837FE
:1005A000BD4680BD340000203000002080B400AF84
:1005B000254B0822C3F88420234B012283F8C32053
:1005C000214B93F8B130DBB21F4A43F01003DBB28A
:1005D00082F8B1301C4B40229A601B4B40229A613A
:1005E0001A4B1B6A194A43F080031362184B194ACD
:1005F0001A6200BF164B5B6803F00403042BF9D0AA
:10060000134B4022C3F82021134B4FF4E022DA6150
:10061000124B0F229A8000BF104B1B6B002BFBD19B
:100620000E4B1B889BB20D4A43F002039BB2138012
:1006300000BF0A4B1B6B03F00203002BF9D100BF74
:1006400000BFBD4680BC70470080004100080040EC
:10065000001C00400601050000180040001C00437B
:1006600080B582B000AF00F041FAFFF79FFF4BF674
:100670008030FFF765FE00237B6000233B60FFF7BF
:10068000ABFE0346114A1360104B1B683B607B684E
:1006900032333A689A4204DC3B6832337A689A42D1
:1006A00010DD3868FFF7BAFE3868FFF7DDFE034655
:1006B000074A1360FFF7FCFE3B687B60044B1B6836
:1006C000044A1360FFF788FE3860E0E72800002046
:1006D000300000203400002080B582B000AF1C4BF9
:1006E0007B601C4B3B607A683B689A420CD007E009
:1006F0007A68131D7B603B68191D396012681A60A7
:100700003B68154A9342F3D3144B3B6004E03B68CB
:100710001A1D3A6000221A603B68114A9342F6D3D0
:10072000104B7B607B68104A23F07F0393600F4B74
:10073000002B01D00D4B984700F040FA0C4B002BDA
:1007400001D00B4B9847FFF78BFF00BFFDE700BFC1
:10075000000D00000000002008000020080000201C
:10076000D00100200000000000ED00E000000000CB
:100770000000000080B400AF00BFFDE780B483B08C
:1007800000AF0346FB80B7F90630002B0BDBFB887C
:1007900003F01F020649B7F906305B09012000FA91
:1007A00002F241F8232000BF0C37BD4680BC7047E1
:1007B00000E100E090B486B000AF04460846114660
:1007C0001A462346FB710346BB710B467B711346E9
:1007D0003B717B79002B02D04FF0005300E00023E7
:1007E0007B613B79002B01D0002301E04FF0805367
:1007F0003B61BB79002B02D04FF4003300E00023B3
:10080000FB60FB79002B01D10123FB710F4AFB68D0
:10081000536000BF0D4BDB69002BFBD10B4AFB790A
:1008200013737A693B691343084A43F4401343F056
:100830000E03136000BF054BDB69002BFBD100BF2B
:1008400000BF1837BD4690BC704700BF0034004061
:1008500080B400AF074B00221A60064B00225A609A
:1008600000BF044BDB69002BFBD100BF00BFBD46BE
:1008700080BC70470034004080B500AF3220FFF7E5
:100880007DFF2D4B2D4ADA6200BF2B4B5B6803F0D6
:100890002003202BF9D0284B4322C3F8A02000BF0F
:1008A000254BD3F8A03003F04003402BF8D1244B64
:1008B0005B69234A43F400535361224B93F8503051
:1008C000DBB2204A43F00103DBB282F850301D4B0B
:1008D00093F83830DBB21B4A43F00203DBB282F8F4
:1008E0003830184B93F85130DBB2164A43F001030D
:1008F000DBB282F85130134B93F83830DBB2114A37
:1009000043F02003DBB282F838300E4B93F85330BB
:10091000DBB20C4A43F00303DBB282F85330094BDD
:1009200093F83930DBB2074A43F02003DBB282F898
:10093000393000BF80BD00BF001C0040060101002F
:10094000000800400080004180B483B000AF03463F
:10095000FB710B4B04225A83094B80221A76084AFA
:10096000FB79936200BF064B1B7EDBB203F00203F0
:10097000002BF8D000BF00BF0C37BD4680BC7047CD
:100980000034004080B582B000AF0346FB71094BD4
:100990004FF40072C3F89420FB791846FFF7D4FF98
:1009A000044B4FF40072C3F8982000BF0837BD46CF
:1009B00080BD00BF0080004180B500AF0123002250
:1009C00000210120FFF7F6FE024B1022C3F894200D
:1009D00000BF80BD0080004180B500AF034B1022F6
:1009E000C3F89820FFF734FF00BF80BD00800041AE
:1009F00080B500AFFFF7E0FFAF20FFF7C3FFFFF7C1
:100A0000EBFF00BF80BD80B582B000AF0346FB7135
:100A10000B46BB711346BB80FFF7CEFF1520FFF7D7
:100A2000B1FFFB791033DBB21846FFF78DFFFB797E
:100A30001033DBB21846FFF787FF7520FFF7A2FFE0
:100A4000BB791846FFF780FFBB791846FFF77CFF9C
:100A50005C20FFF797FFBB881B0A9BB2DBB21846EE
:100A6000FFF772FFBB88DBB21846FFF76DFFFFF799
:100A7000B3FF00BF0837BD4680BD80B582B000AF70
:100A8000FFF79AFF1520FFF77DFF0020FFF75CFFBF
:100A90007F20FFF759FF7520FFF774FF0020FFF755
:100AA00053FF7F20FFF750FF5C20FFF76BFF002311
:100AB0007B6011E000233B6008E00020FFF744FF6B
:100AC0000020FFF741FF3B6801333B603B687F2B11
:100AD000F3DD7B6801337B607B687F2BEADDFFF70A
:100AE0007BFF00BF0837BD4680BD000080B582B0E7
:100AF00000AFFFF7C1FE2F4B4022C3F888202D4BDB
:100B00004022C3F894202B4B4022C3F89820294B55
:100B10008022C3F88820274B1022C3F88820254B59
:100B20001022C3F89820234B4FF48072C3F888201A
:100B3000204B4FF40072C3F888201E4B4FF4007214
:100B4000C3F898201B4B4FF48072C3F89420194BC4
:100B50008022C3F89820FFF74BFFFFF72DFFA0205E
:100B6000FFF710FF3220FFF7EFFEA120FFF70AFF8B
:100B70002020FFF7E9FEB220FFF704FFA420FFF7D3
:100B8000E3FE0020FFF7E0FE0020FFF7DDFEFFF7A9
:100B900074FFFFF721FF00237B6002E07B680133D5
:100BA0007B607B68044A9342F8DD00BF00BF0837D2
:100BB000BD4680BD008000413F420F0070B50F4B25
:100BC0000F4DAB42A3EB050607D0B610002455F835
:100BD000043B01349847A642F9D800F07FF8094D4C
:100BE000094B5E1BAB424FEAA60606D0002455F81F
:100BF000043B01349847A642F9D870BDE80C0000C8
:100C0000E80C0000E80C0000F00C0000704700BF8A
:100C1000704700BF024B13B1024800F005B870479F
:100C200000000000350C0000002301461A4618465B
:100C300000F014B838B5074D074C2C1BA41005D094
:100C4000013C55F8043D9847002CF9D1BDE83840E7
:100C500000F04EB8000D0000FC0C00002DE9F84338
:100C60001B4D0646286898460F469146FFF7CEFF73
:100C7000184B1C681CB3286865681F2D22DC4EB910
:100C80006B1C0235636044F82570FFF7C1FF00203C
:100C9000BDE8F88304EB85010123C1F88890D4F8FE
:100CA0008821AB401A43022EC4F88821C1F808817C
:100CB000E6D1D4F88C211A43C4F88C21E0E7064C25
:100CC0001C60D8E7FFF7A4FF4FF0FF30E0E700BF5C
:100CD000040000203C00002040000020F8B500BFC8
:100CE000F8BC08BC9E467047150C0000C902000005
:100CF000F8B500BFF8BC08BC9E467047A1020000D2
:080D000010270000380000205C
:00000001FF
