:10000000C0010120B50700005108000051080000A0
:1000100051080000510800005108000000000000D5
:100020000000000000000000000000005108000077
:10003000510800000000000051080000BD0300004E
:10004000510800005108000051080000510800004C
:10005000510800005108000051080000510800003C
:10006000510800005108000051080000510800002C
:10007000510800005108000051080000510800001C
:10008000510800005108000051080000510800000C
:1000900051080000510800005108000051080000FC
:1000A00051080000510800005108000051080000EC
:1000B00051080000510800005108000051080000DC
:1000C00051080000510800005108000051080000CC
:1000D00051080000510800005108000051080000BC
:1000E000510800005108000000000000000000005E
:1000F00000000000510800005108000051080000F5
:10010000510800005108000051080000510800008B
:10011000510800005108000051080000510800007B
:10012000510800005108000051080000510800006B
:10013000510800005108000051080000510800005B
:10014000510800005108000051080000510800004B
:1001500051080000510800000000000000000000ED
:10016000000000000000000000000000000000008F
:1001700000000000000000005108000051080000CD
:10018000510800005108000051080000510800000B
:100190000000000051080000510800005108000054
:1001A00051080000510800005108000051080000EB
:1001B00051080000510800005108000051080000DB
:1001C00051080000510800005108000051080000CB
:1001D00051080000510800005108000051080000BB
:1001E00051080000510800005108000051080000AB
:1001F000510800005108000051080000510800009B
:10020000510800000000000000000000510800003C
:10021000510800005108000051080000510800007A
:10022000510800005108000051080000510800006A
:10023000510800005108000051080000510800005A
:10024000510800005108000051080000510800004A
:10025000510800005108000051080000510800003A
:100260000348044B834202D0034B03B11847704745
:10027000680D0000680D0000000000000548064BF6
:100280001B1AD90F01EBA301491002D0034B03B194
:1002900018477047680D0000680D0000000000005E
:1002A00010B5064C237843B9FFF7DAFF044B13B1BE
:1002B0000448AFF300800123237010BD0800002024
:1002C00000000000680D000008B5054B1BB1054992
:1002D0000548AFF30080BDE80840FFF7CFBF00BF7F
:1002E000000000000C000020680D000080B483B006
:1002F00000AF0346FB80B7F90630002B0BDBFB8811
:1003000003F01F020649B7F906305B09012000FA25
:1003100002F241F8232000BF0C37BD4680BC704775
:1003200000E100E080B483B000AF03463960FB8099
:10033000B7F90630002B0ADB3B68DAB20C49B7F993
:1003400006305201D2B20B4483F800230AE03B6826
:10035000DAB20849FB8803F00F03043B5201D2B222
:100360000B441A7600BF0C37BD4680BC704700BFF7
:1003700000E100E000ED00E080B582B000AF786001
:100380007B68013BB3F1807F01D301230FE00A4A70
:100390007B68013B536007214FF0FF30FFF7C2FF3E
:1003A000054B00229A60044B07221A60002318466E
:1003B0000837BD4680BD00BF10E000E080B400AF4C
:1003C0000F4B1B6801330E4A13600E4B1A6813461D
:1003D0001B049B1A0C4A82FB03125211DB17D21A20
:1003E0000A4B92B2DA8300BF084B1B6903F080030B
:1003F000002BF9D100BF00BFBD4680BC704700BFD5
:1004000024000020000000201F85EB51003C00402C
:1004100080B483B000AF786039603B68DA687B688D
:100420001340002B19D03B681B695A1C3B681A61AA
:100430003B6800225A613B681B7E83F00103DBB2FC
:10044000002B27D03B6801221A76154B1A683B68AF
:100450001A603B6800229A601CE03B6800221A6127
:100460003B685B695A1C3B685A613B681B7E002BEA
:1004700010D03B6800221A76094B1A683B681B684B
:10048000D21A3B689A60064B1A683B685A603B6810
:1004900000221A6000BF0C37BD4680BC704700BF09
:1004A0002400002080B483B000AF78603960104B26
:1004B0005A683B680E4913434B600D4A7B681344EE
:1004C00040331B78DBB20A4A43F00503D9B27B689C
:1004D000134440330A461A70054B9A693B68044935
:1004E00013438B6100BF0C37BD4680BC704700BF13
:1004F0000080004180B400AF2F4B5B692E4A43F46B
:10050000004353612D4B2E4A5A6200BF2B4B5B6850
:1005100003F00803002BF9D1284B4122C3F8A42093
:1005200000BF264BD3F8A43003F04003002BF8D0D3
:10053000244B4FF400629A60224B93F84B30DBB2AD
:10054000204A43F00103DBB282F84B301D4B93F895
:100550003530DBB21B4A43F04003DBB282F8353062
:10056000194B02221A73184B4FF6FF729A8300BF81
:10057000154B1B6903F04003002BF9D1124B4FF6CA
:10058000FF72DA8300BF104B1B6903F08003002B5E
:10059000F9D10D4B1B680C4A43F00203136000BFF6
:1005A000094B1B6903F00203002BF9D100BF00BF08
:1005B000BD4680BC704700BF00080040001C0040E2
:1005C0000601080000800041003C004080B483B078
:1005D00000AF786039607B681B7E83F00103DBB27B
:1005E000002B30D03B681B7E83F00103DBB2002B75
:1005F00029D07B685A683B685B689A420ED9454BA4
:100600001B68092B03DD434B1B68053B01E0414B95
:100610001B68404A13607B6800225A607B685A68F6
:100620003B685B689A420ED23A4B1B685F2B03DC37
:10063000384B1B68053301E0364B1B68354A1360A5
:100640003B6800225A607B681B7E002B2BD03B68E6
:100650001B7E83F00103DBB2002B24D02E4B1A68E3
:100660007B681B68D31AB3F57A7F4CD92A4B1A687A
:100670007B681B68D21A294BA3FB02135B094FF45A
:10068000FA7101FB03F3D31A002B3CD1214B1B68F9
:10069000092B03DD1F4B1B68053B01E01D4B1B684D
:1006A0001C4A13602FE07B681B7E83F00103DBB2E2
:1006B000002B29D03B681B7E002B25D0164B1A68D7
:1006C0003B681B68D31AB3F57A7F1DD9124B1A68A1
:1006D0003B681B68D21A114BA3FB02135B094FF452
:1006E000FA7101FB03F3D31A002B0DD1094B1B68E0
:1006F0005F2B03DC074B1B68053301E0054B1B68D0
:10070000044A136000E000BF00BF0C37BD4680BC48
:10071000704700BF0000002024000020D34D62106D
:1007200080B58EB000AFFFF7E5FE4BF68030FFF7E7
:1007300023FE4FF0FF30FFF7D9FD04210220FFF721
:10074000B1FE80210720FFF7ADFE00F003FA07F1AC
:100750001C0300221A605A609A60DA601A615A61BA
:100760009A610423BB623B4600221A605A609A6079
:10077000DA601A615A619A618023FB6030BF0C4BCA
:100780001B6A07F11C0211461846FFF741FE084B91
:100790001B6A3A4611461846FFF73AFE3A4607F1F9
:1007A0001C0311461846FFF711FF00BFE6E700BF24
:1007B0000080004180B582B000AF1C4B7B601C4BB9
:1007C0003B607A683B689A420CD007E07A68131D58
:1007D0007B603B68191D396012681A603B68154AD6
:1007E0009342F3D3144B3B6004E03B681A1D3A601C
:1007F00000221A603B68114A9342F6D3104B7B608B
:100800007B68104A23F07F0393600F4B002B01D0CD
:100810000D4B984700F006FA0C4B002B01D00B4B08
:100820009847FFF77DFF00BFFDE700BF680D0000A0
:10083000000000200800002008000020C001002067
:100840000000000000ED00E00000000000000000DB
:1008500080B400AF00BFFDE780B483B000AF0346B3
:10086000FB80B7F90630002B0BDBFB8803F01F027F
:100870000649B7F906305B09012000FA02F241F897
:10088000232000BF0C37BD4680BC704700E100E06C
:1008900090B486B000AF0446084611461A46234677
:1008A000FB710346BB710B467B7113463B717B7931
:1008B000002B02D04FF0005300E000237B613B7916
:1008C000002B01D0002301E04FF080533B61BB7946
:1008D000002B02D04FF4003300E00023FB60FB79D3
:1008E000002B01D10123FB710F4AFB68536000BF4D
:1008F0000D4BDB69002BFBD10B4AFB7913737A6933
:100900003B691343084A43F4401343F00E0313605A
:1009100000BF054BDB69002BFBD100BF00BF1837C0
:10092000BD4690BC704700BF0034004080B400AFAB
:10093000074B00221A60064B00225A6000BF044B8E
:10094000DB69002BFBD100BF00BFBD4680BC7047F8
:100950000034004080B500AF3220FFF77DFF2D4B03
:100960002D4ADA6200BF2B4B5B6803F02003202B7B
:10097000F9D0284B4322C3F8A02000BF254BD3F861
:10098000A03003F04003402BF8D1244B5B69234A8D
:1009900043F400535361224B93F85030DBB2204AAA
:1009A00043F00103DBB282F850301D4B93F838302E
:1009B000DBB21B4A43F00203DBB282F83830184B3B
:1009C00093F85130DBB2164A43F00103DBB282F8F0
:1009D0005130134B93F83830DBB2114A43F0200307
:1009E000DBB282F838300E4B93F85330DBB20C4A4E
:1009F00043F00303DBB282F85330094B93F83930EC
:100A0000DBB2074A43F02003DBB282F8393000BF83
:100A100080BD00BF001C004006010100000800402E
:100A20000080004180B483B000AF0346FB710B4BE4
:100A300004225A83094B80221A76084AFB79936272
:100A400000BF064B1B7EDBB203F00203002BF8D085
:100A500000BF00BF0C37BD4680BC7047003400406B
:100A600080B582B000AF0346FB71094B4FF40072B2
:100A7000C3F89420FB791846FFF7D4FF044B4FF4DA
:100A80000072C3F8982000BF0837BD4680BD00BF84
:100A90000080004180B500AF012300220021012029
:100AA000FFF7F6FE024B1022C3F8942000BF80BD72
:100AB0000080004180B500AF034B1022C3F898209E
:100AC000FFF734FF00BF80BD0080004180B500AF5C
:100AD000FFF7E0FFAF20FFF7C3FFFFF7EBFF00BF1B
:100AE00080BD80B582B000AFFFF7D4FF1520FFF7BF
:100AF000B7FF0020FFF796FF7F20FFF793FF7520D9
:100B0000FFF7AEFF0020FFF78DFF7F20FFF78AFF82
:100B10005C20FFF7A5FF00237B6011E000233B6012
:100B200008E00020FFF77EFF0020FFF77BFF3B6817
:100B300001333B603B687F2BF3DD7B6801337B60D7
:100B40007B687F2BEADDFFF7B5FF00BF0837BD46A6
:100B500080BD000080B582B000AFFFF7FBFE2F4BD9
:100B60004022C3F888202D4B4022C3F894202B4B01
:100B70004022C3F89820294B8022C3F88820274BB5
:100B80001022C3F88820254B1022C3F89820234B4D
:100B90004FF48072C3F88820204B4FF40072C3F8E2
:100BA00088201E4B4FF40072C3F898201B4B4FF463
:100BB0008072C3F89420194B8022C3F89820FFF765
:100BC00085FFFFF767FFA020FFF74AFF3220FFF7FE
:100BD00029FFA120FFF744FF2020FFF723FFB220C9
:100BE000FFF73EFFA420FFF71DFF0020FFF71AFFCD
:100BF0000020FFF717FFFFF774FFFFF75BFF0023ED
:100C00007B6002E07B6801337B607B68044A93422F
:100C1000F8DD00BF00BF0837BD4680BD0080004141
:100C20003F420F0070B50F4B0F4DAB42A3EB0506D3
:100C300007D0B610002455F8043B01349847A6426B
:100C4000F9D800F07FF8094D094B5E1BAB424FEA23
:100C5000A60606D0002455F8043B01349847A64266
:100C6000F9D870BD500D0000500D0000500D00006F
:100C7000580D0000704700BF704700BF024B13B112
:100C8000024800F005B87047000000009D0C00000D
:100C9000002301461A46184600F014B838B5074D2F
:100CA000074C2C1BA41005D0013C55F8043D984777
:100CB000002CF9D1BDE8384000F04EB8680D0000B6
:100CC000640D00002DE9F8431B4D06462868984640
:100CD0000F469146FFF7CEFF184B1C681CB32868DF
:100CE00065681F2D22DC4EB96B1C0235636044F829
:100CF0002570FFF7C1FF0020BDE8F88304EB8501F4
:100D00000123C1F88890D4F88821AB401A43022E01
:100D1000C4F88821C1F80881E6D1D4F88C211A439F
:100D2000C4F88C21E0E7064C1C60D8E7FFF7A4FF6D
:100D30004FF0FF30E0E700BF040000202C0000204F
:100D400030000020F8B500BFF8BC08BC9E467047D4
:100D50007D0C0000C9020000F8B500BFF8BC08BC5B
:080D60009E467047A10200004D
:080D68006400000028000020D7
:00000001FF
