:10000000B8010120BD03000059040000590400009C
:1000100059040000590400005904000000000000C9
:100020000000000000000000000000005904000073
:1000300059040000000000005904000059040000A9
:10004000590400005904000059040000590400003C
:10005000590400005904000059040000590400002C
:10006000590400005904000059040000590400001C
:10007000590400005904000059040000590400000C
:1000800059040000590400005904000059040000FC
:1000900059040000590400005904000059040000EC
:1000A00059040000590400005904000059040000DC
:1000B00059040000590400005904000059040000CC
:1000C00059040000590400005904000059040000BC
:1000D00059040000590400005904000059040000AC
:1000E0005904000059040000000000000000000056
:1000F00000000000590400005904000059040000E9
:10010000590400005904000059040000590400007B
:10011000590400005904000059040000590400006B
:10012000590400005904000059040000590400005B
:10013000590400005904000059040000590400004B
:10014000590400005904000059040000590400003B
:1001500059040000590400000000000000000000E5
:10016000000000000000000000000000000000008F
:1001700000000000000000005904000059040000C5
:1001800059040000590400005904000059040000FB
:100190000000000059040000590400005904000048
:1001A00059040000590400005904000059040000DB
:1001B00059040000590400005904000059040000CB
:1001C00059040000590400005904000059040000BB
:1001D00059040000590400005904000059040000AB
:1001E000590400005904000059040000590400009B
:1001F000590400005904000059040000590400008B
:100200005904000000000000000000005904000034
:10021000590400005904000059040000590400006A
:10022000590400005904000059040000590400005A
:10023000590400005904000059040000590400004A
:10024000590400005904000059040000590400003A
:10025000590400005904000059040000590400002A
:100260000348044B834202D0034B03B11847704745
:10027000A4050000A4050000000000000548064B8E
:100280001B1AD90F01EBA301491002D0034B03B194
:1002900018477047A4050000A405000000000000F6
:1002A00010B5064C237843B9FFF7DAFF044B13B1BE
:1002B0000448AFF300800123237010BD0400002028
:1002C00000000000A405000008B5054B1BB105495E
:1002D0000548AFF30080BDE80840FFF7CFBF00BF7F
:1002E0000000000008000020A405000080B400AF5A
:1002F0002D4B5B692C4A43F4004353612B4B2C4A32
:100300005A6200BF294B5B6803F00803002BF9D148
:10031000264B4122C3F8A42000BF244BD3F8A430BD
:1003200003F04003002BF8D0224B4FF400629A6098
:10033000204B93F84B30DBB21E4A43F00103DBB293
:1003400082F84B301B4B93F83530DBB2194A43F03F
:100350004003DBB282F83530174B02221A73164B7A
:100360004FF6FF729A8300BF134B1B6903F04003E3
:10037000002BF9D1104B47F6FF72DA8300BF0E4B0A
:100380001B6903F08003002BF9D10B4B1B680A4A51
:1003900043F00203136000BF074B1B6903F0020325
:1003A000002BF9D100BFFDE700080040001C004011
:1003B0000601080000800041003C004080B582B08A
:1003C00000AF1C4B7B601C4B3B607A683B689A42D9
:1003D0000CD007E07A68131D7B603B68191D3960FB
:1003E00012681A603B68154A9342F3D3144B3B6082
:1003F00004E03B681A1D3A6000221A603B68114A0B
:100400009342F6D3104B7B607B68104A23F07F0346
:1004100093600F4B002B01D00D4B984700F020F854
:100420000C4B002B01D00B4B9847FFF75FFF00BF31
:10043000FDE700BFA405000000000020040000202C
:1004400004000020B80100200000000000ED00E0E2
:10045000000000000000000080B400AF00BFFDE716
:1004600070B50F4B0F4DAB42A3EB050607D0B6108E
:10047000002455F8043B01349847A642F9D800F00F
:100480007FF8094D094B5E1BAB424FEAA60606D02A
:10049000002455F8043B01349847A642F9D870BDB2
:1004A0008C0500008C0500008C0500009405000000
:1004B000704700BF704700BF024B13B1024800F005
:1004C00005B8704700000000D90400000023014671
:1004D0001A46184600F014B838B5074D074C2C1BC7
:1004E000A41005D0013C55F8043D9847002CF9D1E3
:1004F000BDE8384000F04EB8A4050000A00500009B
:100500002DE9F8431B4D0646286898460F4691464C
:10051000FFF7CEFF184B1C681CB3286865681F2DB9
:1005200022DC4EB96B1C0235636044F82570FFF77E
:10053000C1FF0020BDE8F88304EB85010123C1F869
:100540008890D4F88821AB401A43022EC4F8882141
:10055000C1F80881E6D1D4F88C211A43C4F88C2163
:10056000E0E7064C1C60D8E7FFF7A4FF4FF0FF3030
:10057000E0E700BF00000020240000202800002049
:10058000F8B500BFF8BC08BC9E467047B90400002F
:10059000C9020000F8B500BFF8BC08BC9E46704711
:0405A000A1020000B4
:0405A4002000002013
:00000001FF
