:10000000F0010120D90A0000750B0000750B0000FB
:10001000750B0000750B0000750B00000000000060
:10002000000000000000000000000000750B000050
:10003000750B000000000000750B0000B10500000A
:10004000750B0000750B0000750B0000750B0000B0
:10005000750B0000750B0000750B0000750B0000A0
:10006000750B0000750B0000750B0000750B000090
:10007000750B0000750B0000750B0000750B000080
:10008000750B0000750B0000750B0000750B000070
:10009000750B0000750B0000750B0000750B000060
:1000A000750B0000750B0000750B0000750B000050
:1000B000750B0000750B0000750B0000750B000040
:1000C000750B0000750B0000750B0000750B000030
:1000D000750B0000750B0000750B0000750B000020
:1000E000750B0000750B0000000000000000000010
:1000F00000000000750B0000750B0000750B000080
:10010000750B0000750B0000750B0000750B0000EF
:10011000750B0000750B0000750B0000750B0000DF
:10012000750B0000750B0000750B0000750B0000CF
:10013000750B0000750B0000750B0000750B0000BF
:10014000750B0000750B0000750B0000750B0000AF
:10015000750B0000750B000000000000000000009F
:10016000000000000000000000000000000000008F
:100170000000000000000000750B0000750B00007F
:10018000750B0000750B0000750B0000750B00006F
:1001900000000000B1040000D9040000750B00004D
:1001A000750B0000750B0000750B0000750B00004F
:1001B000750B0000750B0000750B0000750B00003F
:1001C000750B0000750B0000750B0000750B00002F
:1001D000750B0000750B0000750B0000750B00001F
:1001E000750B0000750B0000750B0000750B00000F
:1001F000BD030000750B0000750B0000750B0000BF
:10020000750B00000000000000000000750B0000EE
:10021000750B0000750B0000750B0000750B0000DE
:10022000750B0000750B0000750B0000750B0000CE
:10023000750B0000750B0000750B0000750B0000BE
:10024000750B0000750B0000750B0000750B0000AE
:10025000750B0000750B0000750B0000750B00009E
:100260000348044B834202D0034B03B11847704745
:10027000C00C0000C00C0000000000000548064B48
:100280001B1AD90F01EBA301491002D0034B03B194
:1002900018477047C00C0000C00C000000000000B0
:1002A00010B5064C237843B9FFF7DAFF044B13B1BE
:1002B0000448AFF300800123237010BD0400002028
:1002C00000000000C00C000008B5054B1BB105493B
:1002D0000548AFF30080BDE80840FFF7CFBF00BF7F
:1002E0000000000008000020C00C000080B483B0B3
:1002F00000AF0346FB80B7F90630002B0BDBFB8811
:1003000003F01F020649B7F906305B09012000FA25
:1003100002F241F8232000BF0C37BD4680BC704775
:1003200000E100E080B483B000AF03463960FB8099
:10033000B7F90630002B0ADB3B68DAB20C49B7F993
:1003400006305201D2B20B4483F800230AE03B6826
:10035000DAB20849FB8803F00F03043B5201D2B222
:100360000B441A7600BF0C37BD4680BC704700BFF7
:1003700000E100E000ED00E080B582B000AF786001
:100380007B68013BB3F1807F01D301230FE00A4A70
:100390007B68013B536007214FF0FF30FFF7C2FF3E
:1003A000054B00229A60044B07221A60002318466E
:1003B0000837BD4680BD00BF10E000E080B483B0C8
:1003C00000AF354B9B7ADBB203F00103002B5ED00C
:1003D000314B01229A72314B1B78002B57D0304B96
:1003E0001B88002B0CD12F4B1B68012B08DC41F222
:1003F0008833FB802B4B1B6801332A4A136040E093
:10040000274B1A88284B1B889A421CD2274B1B88E3
:100410001A46254B1B881946214B1B88CB1A013BDA
:1004200042FA03F303F00103002B02D044F62063E9
:1004300001E043F69823FB80194B1B8801339AB2E5
:10044000174B1A801DE0164B1A88174B1B889A42CF
:1004500009D142F21073FB80114B1B8801339AB211
:100460000F4B1A800DE00D4B00221A700F4B00222B
:100470001A800D4B00221A800023FB80094B0022BA
:100480001A60054AFB88D383034B60225A7100BF70
:100490000C37BD4680BC7047003C00403E00002049
:1004A0003C000020400000203A00002038000020DE
:1004B00080B400AF074BDB6A03F00103012B05D1C9
:1004C000044BDB6A034A43F00103D36200BFBD461D
:1004D00080BC70470060014180B483B000AF00BFB2
:1004E0002F4B9B6803F48073002BF9D12C4B5B6C72
:1004F000FB80FB88B3F57A6F08D3FB8841F27072FA
:10050000934203D8274B01221A7043E0FB8842F242
:100510002732934208D9FB8842F6F822934203D847
:10052000204B00221A7035E01E4B1B78002B31D077
:10053000FB8843F2AF62934210D9FB88B3F57A5F30
:100540000CD8194B1B885B009AB2174B1A80174BBB
:100550001B8801339AB2154B1A801BE0FB8844F6C6
:100560003722934216D9FB8845F20822934211D8CC
:100570000D4B1B881BB25B001BB243F001031BB287
:100580009AB2094B1A80094B1B8801339AB2074B68
:100590001A80FFE700BF0C37BD4680BC704700BF24
:1005A00000600141360000203400002032000020AD
:1005B00080B400AF044B1B680133034A136000BFD3
:1005C000BD4680BC704700BF2000002080B400AF53
:1005D0000A4B4FF48042C3F88420084B052283F86D
:1005E000CE20064B4FF48042C3F89820034B0022E4
:1005F00083F8B72000BFBD4680BC70470080004133
:1006000080B400AF0F4B4FF400629A600D4B4FF473
:1006100000629A610B4B93F84B30DBB2094A43F00E
:100620000103DBB282F84B30064B93F83530DBB276
:10063000044A43F04003DBB282F8353000BFBD46C8
:1006400080BC70470080004180B400AF194B1A4A4B
:100650005A6200BF174B5B6803F00803082BF9D000
:10066000144B4122C3F8A42000BF124BD3F8A4308E
:1006700003F04003402BF8D10E4B4122C3F8E42095
:1006800000BF0C4BD3F8E43003F04003402BF8D10B
:10069000084B4122C3F8902000BF064BD3F890309E
:1006A00003F04003402BF8D100BF00BFBD4680BC23
:1006B000704700BF001C00400601300080B400AF4E
:1006C000084B9B69074A43F080039361064B012264
:1006D000C3F86C21044B4FF408721A6200BFBD4688
:1006E00080BC70470008004000E0004180B400AFCB
:1006F000074B4FF040721A62054B4FF480429A60EC
:10070000034B02221A7000BFBD4680BC704700BF79
:100710000028004080B500AF0E4B5B690D4A43F4E2
:10072000004353610C4B00221A600B4B02221A73D8
:10073000094B02225A71084B01225A72064B1B6860
:10074000054A43F0020313606C20FFF7CFFD00BFA2
:1007500080BD00BF00080040003C004080B500AFF5
:100760000C4B9B690B4A43F4006393610A4B4FF4B3
:1007700080321A62084B4FF001129A62064B074A08
:100780001A605620FFF7B2FD5520FFF7AFFD00BFFE
:1007900080BD00BF00080040006001410200000170
:1007A00080B400AF0A4B4FF400425A60084B93F8F4
:1007B0004F30DBB2064A43F00503DBB282F84F301C
:1007C000034B4FF400429A6100BFBD4680BC7047A6
:1007D0000080004180B483B000AF3C4B1B6A03F43F
:1007E0000043002B0CBF01230023FB71FB79002B7E
:1007F0000DD0374B1B7883F00103DBB2002B06D002
:10080000334B01221A70334B1B68334A1360FB7958
:1008100083F00103DBB2002B39D02D4B1B78002B6A
:1008200035D02B4B00221A702A4B1B682B4A1360C1
:100830002A4B1A68284B1B68D31A3B603B68FA2B7B
:1008400010D8274B1B880F2B21D8264B1B885B0009
:100850009AB2244B1A80224B1B8801339AB2204B48
:100860001A8014E01E4B1B880F2B10D81D4B1B88C1
:100870001BB25B001BB243F001031BB29AB2194BCF
:100880001A80174B1B8801339AB2154B1A80144BF0
:100890001B88002B14D0144B1B7883F00103DBB2B0
:1008A000002B0DD00B4B1A680C4B1B68D31AB3F5F9
:1008B0007A7F05D30C4B01221A700C4B00221A8050
:1008C00000BF0C37BD4680BC704700BF00800041B0
:1008D0002500002020000020280000202C000020FF
:1008E0003A000020380000203E0000203C0000209C
:1008F00080B400AF584B1B78002B0BD0574B1B68B4
:10090000574A12689B1AFA2B40F0A180524B0022E2
:100910001A709CE0534B1B7883F00103DBB2002B71
:1009200058D0514B1A88514B1B889A4252D24B4B8C
:100930001B681A464E4B1A604E4B1B881A464B4B8F
:100940001B881946484B1B88CB1A013B42FA03F31C
:100950009BB203F001039AB2474B1A80464B1B88A7
:10096000002B1CD03D4B1B68414A12689B1AB3F503
:100970007A7F2FD23B4B1B7883F00103DBB2002B35
:1009800028D03E4B4FF48042DA61364B01221A7078
:10099000354B1B8801339AB2334B1A801AE02F4B28
:1009A0001B68334A12689B1AF92B13D82D4B1B78FE
:1009B00083F00103DBB2002B0CD0304B4FF48042AC
:1009C000DA61284B01221A70274B1B8801339AB237
:1009D000254B1A80214B1B68254A12689B1AB3F5D8
:1009E0007A7F16D31F4B1B78002B12D0224B1B880B
:1009F000002B0ED0214B4FF48042DA61194B0022BC
:100A00001A70154B01221A70144B1B681A46144BAE
:100A10001A60124B1B68164A12689B1AF92B16D9DA
:100A2000104B1B78002B12D0134B1B88002B0ED1C0
:100A3000124B4FF48042DA610A4B00221A70064BC7
:100A400001221A70054B1B681A46054B1A6000BF3D
:100A5000BD4680BC704700BF490000202000002038
:100A60004C00002048000020300000203200002010
:100A7000440000203400002050000020008000418D
:100A800080B500AF4FF0FF30FFF730FC4BF6803001
:100A9000FFF772FCFFF7B4FDFFF798FDFFF7D4FDF9
:100AA000FFF738FEFFF75AFEFFF708FEFFF71EFEBE
:100AB000FFF776FE62B600BF064B4FF480429A60A5
:100AC000044B4FF480429A61FFF784FEFFF710FF5A
:100AD00000BFF9E70080004180B582B000AF1C4B39
:100AE0007B601C4B3B607A683B689A420CD007E005
:100AF0007A68131D7B603B68191D396012681A60A3
:100B00003B68154A9342F3D3144B3B6004E03B68C7
:100B10001A1D3A6000221A603B68114A9342F6D3CC
:100B2000104B7B607B68104A23F07F0393600F4B70
:100B3000002B01D00D4B984700F020F80C4B002BF8
:100B400001D00B4B9847FFF79BFF00BFFDE700BFAD
:100B5000C00C000000000020040000200400002061
:100B6000EC0100200000000000ED00E000000000AB
:100B70000000000080B400AF00BFFDE770B50F4B70
:100B80000F4DAB42A3EB050607D0B610002455F875
:100B9000043B01349847A642F9D800F07FF8094D8C
:100BA000094B5E1BAB424FEAA60606D0002455F85F
:100BB000043B01349847A642F9D870BDA80C000048
:100BC000A80C0000A80C0000B00C0000704700BF8B
:100BD000704700BF024B13B1024800F005B87047E0
:100BE00000000000F50B0000002301461A461846DD
:100BF00000F014B838B5074D074C2C1BA41005D0D5
:100C0000013C55F8043D9847002CF9D1BDE8384027
:100C100000F04EB8C00C0000BC0C00002DE9F843F9
:100C20001B4D0646286898460F469146FFF7CEFFB3
:100C3000184B1C681CB3286865681F2D22DC4EB950
:100C40006B1C0235636044F82570FFF7C1FF00207C
:100C5000BDE8F88304EB85010123C1F88890D4F83E
:100C60008821AB401A43022EC4F88821C1F80881BC
:100C7000E6D1D4F88C211A43C4F88C21E0E7064C65
:100C80001C60D8E7FFF7A4FF4FF0FF30E0E700BF9C
:100C900000000020580000205C000020F8B500BFD4
:100CA000F8BC08BC9E467047D50B0000C902000086
:100CB000F8B500BFF8BC08BC9E467047A102000012
:040CC00054000020BC
:00000001FF
