:10000000F0010120E10A00007D0B00007D0B0000E3
:100010007D0B00007D0B00007D0B00000000000048
:100020000000000000000000000000007D0B000048
:100030007D0B0000000000007D0B0000E5040000C7
:100040007D0B00007D0B00007D0B00007D0B000090
:100050007D0B00007D0B00007D0B00007D0B000080
:100060007D0B00007D0B00007D0B00007D0B000070
:100070007D0B00007D0B00007D0B00007D0B000060
:100080007D0B00007D0B00007D0B00007D0B000050
:100090007D0B00007D0B00007D0B00007D0B000040
:1000A0007D0B00007D0B00007D0B00007D0B000030
:1000B0007D0B00007D0B00007D0B00007D0B000020
:1000C0007D0B00007D0B00007D0B00007D0B000010
:1000D0007D0B00007D0B00007D0B00007D0B000000
:1000E0007D0B00007D0B0000000000000000000000
:1000F000000000007D0B00007D0B00007D0B000068
:100100007D0B00007D0B00007D0B00007D0B0000CF
:100110007D0B00007D0B00007D0B00007D0B0000BF
:100120007D0B00007D0B00007D0B00007D0B0000AF
:100130007D0B00007D0B00007D0B00007D0B00009F
:100140007D0B00007D0B00007D0B00007D0B00008F
:100150007D0B00007D0B000000000000000000008F
:10016000000000000000000000000000000000008F
:1001700000000000000000007D0B00007D0B00006F
:100180007D0B00007D0B00007D0B00007D0B00004F
:1001900000000000DD030000050400007D0B0000EE
:1001A0007D0B00007D0B00007D0B00007D0B00002F
:1001B0007D0B00007D0B00007D0B00007D0B00001F
:1001C0007D0B00007D0B00007D0B00007D0B00000F
:1001D0007D0B00007D0B00007D0B00007D0B0000FF
:1001E0007D0B00007D0B00007D0B00007D0B0000EF
:1001F0007D0B00007D0B00007D0B00007D0B0000DF
:100200007D0B000000000000000000007D0B0000DE
:100210007D0B00007D0B00007D0B00007D0B0000BE
:100220007D0B00007D0B00007D0B00007D0B0000AE
:100230007D0B00007D0B00007D0B00007D0B00009E
:100240007D0B00007D0B00007D0B00007D0B00008E
:100250007D0B00007D0B00007D0B00007D0B00007E
:100260000348044B834202D0034B03B11847704745
:100270009410000094100000000000000548064B98
:100280001B1AD90F01EBA301491002D0034B03B194
:100290001847704794100000941000000000000000
:1002A00010B5064C237843B9FFF7DAFF044B13B1BE
:1002B0000448AFF300800123237010BD0400002028
:1002C000000000009410000008B5054B1BB1054963
:1002D0000548AFF30080BDE80840FFF7CFBF00BF7F
:1002E00000000000080000209410000080B483B0DB
:1002F00000AF0346FB80B7F90630002B0BDBFB8811
:1003000003F01F020649B7F906305B09012000FA25
:1003100002F241F8232000BF0C37BD4680BC704775
:1003200000E100E080B483B000AF03463960FB8099
:10033000B7F90630002B0ADB3B68DAB20C49B7F993
:1003400006305201D2B20B4483F800230AE03B6826
:10035000DAB20849FB8803F00F03043B5201D2B222
:100360000B441A7600BF0C37BD4680BC704700BFF7
:1003700000E100E000ED00E080B582B000AF786001
:100380007B68013BB3F1807F01D301230FE00A4A70
:100390007B68013B536007214FF0FF30FFF7C2FF3E
:1003A000054B00229A60044B07221A60002318466E
:1003B0000837BD4680BD00BF10E000E080B483B0C8
:1003C00000AF0346FB71044AFB79537700BF0C373B
:1003D000BD4680BC704700BF003C004080B400AF09
:1003E000074BDB6A03F00103012B05D1044BDB6AE9
:1003F000034A43F00103D36200BFBD4680BC70478F
:100400000060014180B483B000AF00BF2F4B9B68F8
:1004100003F48073002BF9D12C4B5B6CFB712C4BDC
:100420001B78FA79D31ABB71294B1B78002B44D067
:10043000BB79322B03D1274B01221A7039E0254BAF
:100440001B78002B35D0BB79642B03D1214B0022C4
:100450001A702EE0BB79FA2B03D11F4B00221A70C1
:1004600027E01D4B1B7883F00103DBB2002B20D06B
:10047000BB79962B06D1194B1B885B009AB2174BA0
:100480001A800DE0BB79C82B0AD1144B1B881BB214
:100490005B001BB243F001031BB29AB20F4B1A80F0
:1004A0000F4B1B8801339AB20D4B1A800A4B012265
:1004B0001A70074B00221A7002E0054AFB7913708C
:1004C00000BF0C37BD4680BC704700BF00600141D3
:1004D00024000020360000203700002034000020D7
:1004E0003200002080B400AF044B1B680133034A84
:1004F000136000BFBD4680BC704700BF20000020D5
:1005000080B400AF0A4B4FF48042C3F88420084BFC
:10051000052283F8CE20064B4FF48042C3F8982082
:10052000034B002283F8B72000BFBD4680BC704754
:100530000080004180B400AF0F4B4FF400629A601E
:100540000D4B4FF400629A610B4B93F84B30DBB2CA
:10055000094A43F00103DBB282F84B30064B93F8B3
:100560003530DBB2044A43F04003DBB282F8353069
:1005700000BFBD4680BC70470080004180B400AF22
:10058000194B1A4A5A6200BF174B5B6803F0080305
:10059000082BF9D0144B4122C3F8A42000BF124B02
:1005A000D3F8A43003F04003402BF8D10E4B412286
:1005B000C3F8E42000BF0C4BD3F8E43003F0400351
:1005C000402BF8D1084B4122C3F8902000BF064BC6
:1005D000D3F8903003F04003402BF8D100BF00BFA8
:1005E000BD4680BC704700BF001C00400601C01221
:1005F00080B400AF084B9B69074A43F080039361C6
:10060000064B0122C3F86C21044B4FF408721A62A6
:1006100000BFBD4680BC70470008004000E00041BC
:1006200080B400AF074B4FF040721A62054B4FF495
:1006300080429A60034B02221A7000BFBD4680BC04
:10064000704700BF0028004080B400AF0A4B5B69D0
:10065000094A43F400435361084B04221A60074BD4
:1006600002221A73054B1B68044A43F0020313600D
:1006700000BFBD4680BC704700080040003C004001
:1006800080B500AF0D4B9B690C4A43F40063936146
:100690000B4BFF221A640A4B4FF480321A62084B4C
:1006A0004FF001129A62064B064A1A605620FFF775
:1006B0001DFE5520FFF71AFE00BF80BD0008004058
:1006C000006001410200000180B400AF0A4B4FF40A
:1006D00000425A60084B93F84F30DBB2064A43F0B1
:1006E0000503DBB282F84F30034B4FF400429A61AE
:1006F00000BFBD4680BC70470080004180B584B01B
:1007000000AF704B1B6A03F40043002B0CBF0123A6
:100710000023FB73FB7B002B0DD06B4B1B7883F00E
:100720000103DBB2002B06D0674B01221A70674B26
:100730001B68674A1360FB7B83F00103DBB2002B6D
:1007400039D0614B1B78002B35D05F4B00221A70DB
:100750005E4B1B685F4A13605E4B1A685C4B1B68FC
:10076000D31ABB60BB68FA2B10D85B4B1B880F2BCE
:1007700021D85A4B1B885B009AB2584B1A80564BB3
:100780001B8801339AB2544B1A8014E0524B1B88D9
:100790000F2B10D8514B1B881BB25B001BB243F0D0
:1007A00001031BB29AB24D4B1A804B4B1B8801338D
:1007B0009AB2494B1A80484B1B88002B1DD0484BDE
:1007C0001B7883F00103DBB2002B16D03F4B1A6875
:1007D000404B1B68D31AB3F57A7F6FD3404B01228D
:1007E0001A70404B00221A803220FFF7E7FD374B8A
:1007F0001B681A463C4B1A6060E0394B1B78002B93
:100800005CD0324B1B68384A12689B1A312B55D981
:100810002E4B1B681A46344B1A60344B1B78002B46
:1008200006D0FA20FFF7CAFD304B00221A7045E0CF
:100830002C4B1A88284B1B889A4222D2274B1B88A4
:100840001A46254B1B881946264B1B88CB1A013BA1
:1008500042FA03F39BB203F00103FB80FB88002BF9
:1008600001D0C82300E096231846FFF7A7FD1D4BD3
:100870001B8801339AB21B4B1A801C4B01221A7041
:100880001CE0184B1A88144B1B889A4209D164202B
:10089000FFF794FD134B1B8801339AB2114B1A805A
:1008A0000CE00020FFF78AFD0C4B00221A800A4B57
:1008B00000221A800A4B00221A70FFE700BF10378F
:1008C000BD4680BD008000412600002020000020A1
:1008D000280000202C0000203A00002038000020D2
:1008E000440000203C000020400000204500002083
:1008F00080B400AF584B1B78002B0BD0574B1B68B4
:10090000574A12689B1AFA2B40F0A180524B0022E2
:100910001A709CE0534B1B7883F00103DBB2002B71
:1009200058D0514B1A88514B1B889A4252D24B4B8C
:100930001B681A464E4B1A604E4B1B881A464B4B8F
:100940001B881946484B1B88CB1A013B42FA03F31C
:100950009BB203F001039AB2474B1A80464B1B88A7
:10096000002B1CD03D4B1B68414A12689B1AB3F503
:100970007A7F2FD23B4B1B7883F00103DBB2002B35
:1009800028D03E4B4FF48042DA61364B01221A7078
:10099000354B1B8801339AB2334B1A801AE02F4B28
:1009A0001B68334A12689B1AF92B13D82D4B1B78FE
:1009B00083F00103DBB2002B0CD0304B4FF48042AC
:1009C000DA61284B01221A70274B1B8801339AB237
:1009D000254B1A80214B1B68254A12689B1AB3F5D8
:1009E0007A7F16D31F4B1B78002B12D0224B1B880B
:1009F000002B0ED0214B4FF48042DA61194B0022BC
:100A00001A70154B01221A70144B1B681A46144BAE
:100A10001A60124B1B68164A12689B1AF92B16D9DA
:100A2000104B1B78002B12D0134B1B88002B0ED1C0
:100A3000124B4FF48042DA610A4B00221A70064BC7
:100A400001221A70054B1B681A46054B1A6000BF3D
:100A5000BD4680BC704700BF4D0000202000002034
:100A6000500000204C000020300000203200002008
:100A70004800002034000020540000200080004185
:100A800080B500AF4FF0FF30FFF730FC4BF6803001
:100A9000FFF772FC00F0F4F9FFF74CFDFFF730FDB3
:100AA000FFF76CFDFFF7D0FDFFF7EAFDFFF7A0FDB4
:100AB000FFF7B6FDFFF708FE62B600BF074B4FF425
:100AC00080429A60054B4FF480429A6130BFFFF735
:100AD00015FEFFF70DFF00BFF8E700BF00800041E3
:100AE00080B582B000AF1C4B7B601C4B3B607A68CA
:100AF0003B689A420CD007E07A68131D7B603B6824
:100B0000191D396012681A603B68154A9342F3D385
:100B1000144B3B6004E03B681A1D3A6000221A60E7
:100B20003B68114A9342F6D3104B7B607B68104AB6
:100B300023F07F0393600F4B002B01D00D4B9847A0
:100B400000F006FA0C4B002B01D00B4B9847FFF737
:100B500097FF00BFFDE700BF9410000000000020D9
:100B60000400002004000020F0010020000000002C
:100B700000ED00E0000000000000000080B400AFC5
:100B800000BFFDE780B483B000AF0346FB80B7F938
:100B90000630002B0BDBFB8803F01F020649B7F978
:100BA00006305B09012000FA02F241F8232000BF61
:100BB0000C37BD4680BC704700E100E090B486B0C1
:100BC00000AF0446084611461A462346FB71034609
:100BD000BB710B467B7113463B717B79002B02D0B6
:100BE0004FF0005300E000237B613B79002B01D0E4
:100BF000002301E04FF080533B61BB79002B02D012
:100C00004FF4003300E00023FB60FB79002B01D19F
:100C10000123FB710F4AFB68536000BF0D4BDB697A
:100C2000002BFBD10B4AFB7913737A693B691343A1
:100C3000084A43F4401343F00E03136000BF054B12
:100C4000DB69002BFBD100BF00BF1837BD4690BC4D
:100C5000704700BF0034004080B400AF074B002253
:100C60001A60064B00225A6000BF044BDB69002B60
:100C7000FBD100BF00BFBD4680BC704700340040C0
:100C800080B500AF3220FFF77DFF2D4B2D4ADA6291
:100C900000BF2B4B5B6803F02003202BF9D0284BBF
:100CA0004322C3F8A02000BF254BD3F8A03003F0A7
:100CB0004003402BF8D1244B5B69234A43F4005393
:100CC0005361224B93F85030DBB2204A43F00103CA
:100CD000DBB282F850301D4B93F83830DBB21B4A40
:100CE00043F00203DBB282F83830184B93F85130EE
:100CF000DBB2164A43F00103DBB282F85130134BEA
:100D000093F83830DBB2114A43F02003DBB282F8AB
:100D100038300E4B93F85330DBB20C4A43F00303E8
:100D2000DBB282F85330094B93F83930DBB2074A13
:100D300043F02003DBB282F8393000BF80BD00BF32
:100D4000001C004006010100000800400080004136
:100D500080B483B000AF0346FB710B4B04225A836F
:100D6000094B80221A76084AFB79936200BF064B32
:100D70001B7EDBB203F00203002BF8D000BF00BFE4
:100D80000C37BD4680BC70470034004080B582B04F
:100D900000AF0346FB71094B4FF40072C3F8942077
:100DA000FB791846FFF7D4FF044B4FF40072C3F8E9
:100DB000982000BF0837BD4680BD00BF00800041BD
:100DC00080B500AF0123002200210120FFF7F6FECD
:100DD000024B1022C3F8942000BF80BD0080004168
:100DE00080B500AF034B1022C3F89820FFF734FF03
:100DF00000BF80BD0080004180B500AFFFF7E0FF7D
:100E0000AF20FFF7C3FFFFF7EBFF00BF80BD80B54A
:100E100082B000AFFFF7D4FF1520FFF7B7FF002027
:100E2000FFF796FF7F20FFF793FF7520FFF7AEFFD8
:100E30000020FFF78DFF7F20FFF78AFF5C20FFF780
:100E4000A5FF00237B6011E000233B6008E0002049
:100E5000FFF77EFF0020FFF77BFF3B6801333B601D
:100E60003B687F2BF3DD7B6801337B607B687F2BE6
:100E7000EADDFFF7B5FF00BF0837BD4680BD0000C3
:100E800080B582B000AFFFF7FBFE2F4B4022C3F8C6
:100E900088202D4B4022C3F894202B4B4022C3F8CE
:100EA0009820294B8022C3F88820274B1022C3F8B2
:100EB0008820254B1022C3F89820234B4FF48072D2
:100EC000C3F88820204B4FF40072C3F888201E4BD3
:100ED0004FF40072C3F898201B4B4FF48072C3F894
:100EE0009420194B8022C3F89820FFF785FFFFF765
:100EF00067FFA020FFF74AFF3220FFF729FFA1205C
:100F0000FFF744FF2020FFF723FFB220FFF73EFF4B
:100F1000A420FFF71DFF0020FFF71AFF0020FFF7B6
:100F200017FFFFF774FFFFF75BFF00237B6002E012
:100F30007B6801337B607B68044A9342F8DD00BF25
:100F400000BF0837BD4680BD008000413F420F0012
:100F500070B50F4B0F4DAB42A3EB050607D0B61093
:100F6000002455F8043B01349847A642F9D800F014
:100F70007FF8094D094B5E1BAB424FEAA60606D02F
:100F8000002455F8043B01349847A642F9D870BDB7
:100F90007C1000007C1000007C1000008410000019
:100FA000704700BF704700BF024B13B1024800F00A
:100FB00005B8704700000000C90F0000002301467B
:100FC0001A46184600F014B838B5074D074C2C1BCC
:100FD000A41005D0013C55F8043D9847002CF9D1E8
:100FE000BDE8384000F04EB89410000090100000AA
:100FF0002DE9F8431B4D0646286898460F46914652
:10100000FFF7CEFF184B1C681CB3286865681F2DBE
:1010100022DC4EB96B1C0235636044F82570FFF783
:10102000C1FF0020BDE8F88304EB85010123C1F86E
:101030008890D4F88821AB401A43022EC4F8882146
:10104000C1F80881E6D1D4F88C211A43C4F88C2168
:10105000E0E7064C1C60D8E7FFF7A4FF4FF0FF3035
:10106000E0E700BF000000205C00002060000020DE
:10107000F8B500BFF8BC08BC9E467047A90F000039
:10108000C9020000F8B500BFF8BC08BC9E46704716
:04109000A1020000B9
:0410940058000020E0
:00000001FF
