:10000000C001012061040000FD040000FD040000A7
:10001000FD040000FD040000FD04000000000000DD
:10002000000000000000000000000000FD040000CF
:10003000FD04000000000000FD040000D5030000E6
:10004000FD040000FD040000FD040000FD040000AC
:10005000FD040000FD040000FD040000FD0400009C
:10006000FD040000FD040000FD040000FD0400008C
:10007000FD040000FD040000FD040000FD0400007C
:10008000FD040000FD040000FD040000FD0400006C
:10009000FD040000FD040000FD040000FD0400005C
:1000A000FD040000FD040000FD040000FD0400004C
:1000B000FD040000FD040000FD040000FD0400003C
:1000C000FD040000FD040000FD040000FD0400002C
:1000D000FD040000FD040000FD040000FD0400001C
:1000E000FD040000FD04000000000000000000000E
:1000F00000000000FD040000FD040000FD040000FD
:10010000FD040000FD040000FD040000FD040000EB
:10011000FD040000FD040000FD040000FD040000DB
:10012000FD040000FD040000FD040000FD040000CB
:10013000FD040000FD040000FD040000FD040000BB
:10014000FD040000FD040000FD040000FD040000AB
:10015000FD040000FD04000000000000000000009D
:10016000000000000000000000000000000000008F
:100170000000000000000000FD040000FD0400007D
:10018000FD040000FD040000FD040000FD0400006B
:1001900000000000FD040000FD040000FD0400005C
:1001A000FD040000FD040000FD040000FD0400004B
:1001B000FD040000FD040000FD040000FD0400003B
:1001C000FD040000FD040000FD040000FD0400002B
:1001D000FD040000FD040000FD040000FD0400001B
:1001E000FD040000FD040000FD040000FD0400000B
:1001F000FD040000FD040000FD040000FD040000FB
:10020000FD0400000000000000000000FD040000EC
:10021000FD040000FD040000FD040000FD040000DA
:10022000FD040000FD040000FD040000FD040000CA
:10023000FD040000FD040000FD040000FD040000BA
:10024000FD040000FD040000FD040000FD040000AA
:10025000FD040000FD040000FD040000FD0400009A
:100260000348044B834202D0034B03B11847704745
:100270004806000048060000000000000548064B44
:100280001B1AD90F01EBA301491002D0034B03B194
:1002900018477047480600004806000000000000AC
:1002A00010B5064C237843B9FFF7DAFF044B13B1BE
:1002B0000448AFF300800123237010BD0400002028
:1002C000000000004806000008B5054B1BB10549B9
:1002D0000548AFF30080BDE80840FFF7CFBF00BF7F
:1002E00000000000080000204806000080B483B031
:1002F00000AF0346FB80B7F90630002B0BDBFB8811
:1003000003F01F020649B7F906305B09012000FA25
:1003100002F241F8232000BF0C37BD4680BC704775
:1003200000E100E080B483B000AF03463960FB8099
:10033000B7F90630002B0ADB3B68DAB20C49B7F993
:1003400006305201D2B20B4483F800230AE03B6826
:10035000DAB20849FB8803F00F03043B5201D2B222
:100360000B441A7600BF0C37BD4680BC704700BFF7
:1003700000E100E000ED00E080B582B000AF786001
:100380007B68013BB3F1807F01D301230FE00A4A70
:100390007B68013B536007214FF0FF30FFF7C2FF3E
:1003A000054B00229A60044B07221A60002318466E
:1003B0000837BD4680BD00BF10E000E080B500AF4B
:1003C0004FF0FF30FFF792FF4BF68030FFF7D4FF7E
:1003D00000BF80BD80B400AF044B1B680133034AEB
:1003E000136000BFBD4680BC704700BF20000020E6
:1003F00080B582B000AF00237B6002E07B680133F0
:100400007B607B68114A9342F8DD114B4FF48042C8
:100410009A600F4B4FF480429A610E4B02225A7041
:10042000FFF7CCFF62B600BF30BF0B4B1A680B4B17
:10043000A3FB02135B09642101FB03F3D31A002B16
:10044000F2D1034B4FF48042DA61EDE79F86010061
:100450000080004100040040200000201F85EB5177
:1004600080B582B000AF1C4B7B601C4B3B607A6850
:100470003B689A420CD007E07A68131D7B603B68AA
:10048000191D396012681A603B68154A9342F3D30C
:10049000144B3B6004E03B681A1D3A6000221A606E
:1004A0003B68114A9342F6D3104B7B607B68104A3D
:1004B00023F07F0393600F4B002B01D00D4B984727
:1004C00000F020F80C4B002B01D00B4B9847FFF7A6
:1004D0008FFF00BFFDE700BF4806000000000020BE
:1004E0000400002004000020BC01002000000000E7
:1004F00000ED00E0000000000000000080B400AF4C
:1005000000BFFDE770B50F4B0F4DAB42A3EB0506E7
:1005100007D0B610002455F8043B01349847A64292
:10052000F9D800F07FF8094D094B5E1BAB424FEA4A
:10053000A60606D0002455F8043B01349847A6428D
:10054000F9D870BD3006000030060000300600000B
:1005500038060000704700BF704700BF024B13B160
:10056000024800F005B87047000000007D0500005B
:10057000002301461A46184600F014B838B5074D56
:10058000074C2C1BA41005D0013C55F8043D98479E
:10059000002CF9D1BDE8384000F04EB84806000004
:1005A000440600002DE9F8431B4D0646286898468E
:1005B0000F469146FFF7CEFF184B1C681CB3286806
:1005C00065681F2D22DC4EB96B1C0235636044F850
:1005D0002570FFF7C1FF0020BDE8F88304EB85011B
:1005E0000123C1F88890D4F88821AB401A43022E29
:1005F000C4F88821C1F80881E6D1D4F88C211A43C7
:10060000C4F88C21E0E7064C1C60D8E7FFF7A4FF94
:100610004FF0FF30E0E700BF00000020280000207E
:100620002C000020F8B500BFF8BC08BC9E467047FF
:100630005D050000C9020000F8B500BFF8BC08BCA9
:080640009E467047A102000074
:04064800240000206A
:00000001FF
