:10000000F801012021050000BD050000BD0500002C
:10001000BD050000BD050000BD050000000000009A
:10002000000000000000000000000000BD0500000E
:10003000BD05000000000000BD050000BD0500007A
:10004000BD050000BD050000BD050000BD050000A8
:10005000BD050000BD050000BD050000BD05000098
:10006000BD050000BD050000BD050000BD05000088
:10007000BD050000BD050000BD050000BD05000078
:10008000BD050000BD050000BD050000BD05000068
:10009000BD050000BD050000BD050000BD05000058
:1000A000BD050000BD050000BD05000065040000A1
:1000B000BD050000BD050000BD050000BD05000038
:1000C000BD050000BD050000BD050000BD05000028
:1000D000BD050000BD050000BD050000BD05000018
:1000E000BD050000BD05000000000000000000008C
:1000F00000000000BD050000BD050000BD050000BA
:10010000BD050000BD050000BD050000BD050000E7
:10011000BD050000BD050000BD050000BD050000D7
:10012000BD050000BD050000BD050000BD050000C7
:10013000BD050000BD050000BD050000BD050000B7
:10014000BD050000BD050000BD050000BD050000A7
:10015000BD050000BD05000000000000000000001B
:10016000000000000000000000000000000000008F
:100170000000000000000000BD050000BD050000FB
:10018000BD050000BD050000BD050000BD05000067
:1001900000000000BD050000BD050000BD05000019
:1001A000BD050000BD050000BD050000BD05000047
:1001B000BD050000BD050000BD050000BD05000037
:1001C000BD050000BD050000BD050000BD05000027
:1001D000BD050000BD050000BD050000BD05000017
:1001E000BD050000BD050000BD05000025030000A1
:1001F000BD050000BD050000BD050000BD050000F7
:10020000BD0500000000000000000000BD0500006A
:10021000BD050000BD050000BD050000BD050000D6
:10022000BD050000BD050000BD050000BD050000C6
:10023000BD050000BD050000BD050000BD050000B6
:10024000BD050000BD050000BD050000BD050000A6
:10025000BD050000BD050000BD050000BD05000096
:100260000348044B834202D0034B03B11847704745
:10027000AC0B0000AC0B0000000000000548064B72
:100280001B1AD90F01EBA301491002D0034B03B194
:1002900018477047AC0B0000AC0B000000000000DA
:1002A00010B5064C237843B9FFF7DAFF044B13B1BE
:1002B0000448AFF300800123237010BD30000020FC
:1002C00000000000AC0B000008B5054B1BB1054950
:1002D0000548AFF30080BDE80840FFF7CFBF00BF7F
:1002E0000000000034000020AC0B000080B483B09C
:1002F00000AF0346FB80B7F90630002B0BDBFB8811
:1003000003F01F020649B7F906305B09012000FA25
:1003100002F241F8232000BF0C37BD4680BC704775
:1003200000E100E080B500AF354B1B68002B3EDDDF
:10033000334B1B68334A52F82320334B1B689A42D5
:1003400009D12F4B1B68314A52F823309AB2304BF7
:10035000524292B29A822A4B1B682A4A52F82320B0
:10036000294B1B689A421CDA2A4B1B68DBB24FF6FA
:10037000FF723021184600F0A5FA264B1B68591C65
:10038000254B83FB01231A11CB17D21A13465B00AE
:1003900013445B01CA1A1F4B1A601B4B4FF0FF320C
:1003A0001A60194B1B680133174A136022E0194B7E
:1003B0001B68DBB24FF6FF723021184600F082FA5C
:1003C000144B1B68591C144B83FB01231A11CB17C8
:1003D000D21A13465B0013445B01CA1A0D4B1A6014
:1003E000074B1B68094A52F823309AB2084B524215
:1003F00092B29A82064B01229A7200BF80BD00BF62
:1004000054000020140000205000002000000020B4
:10041000003800404C000020ABAAAA2A80B500AFEB
:100420000C4B5B690B4A43F4804353610A4B4022F7
:10043000C3F8A420094B01225A726B20FFF756FF24
:10044000064B074A1A60054B4FF489429A8200BF57
:1004500080BD00BF00080040001C00400038004084
:100460000200010080B400AF0B4B4FF400425A6110
:100470000A4B1B68591C0A4B83FB01235A10CB17EC
:10048000D21A13469B001344CA1A044B1A6000BFC9
:10049000BD4680BC704700BF0028004054000020CB
:1004A0006766666680B500AF144B5B69134A43F418
:1004B00080635361124B4FF400425A60104B052287
:1004C00083F84F200E4B002283F837200C4B4FF45B
:1004D00000429A611B20FFF709FF0A4B4FF40042CC
:1004E0001A61084B4FF400425A61064B4FF080529C
:1004F0001A62044B12221A7000BF80BD000800402F
:10050000008000410028004080B500AF00F044FAB0
:10051000FFF784FFFFF7C6FF62B600BF30BFFDE7FD
:1005200080B582B000AF1C4B7B601C4B3B607A688F
:100530003B689A420CD007E07A68131D7B603B68E9
:10054000191D396012681A603B68154A9342F3D34B
:10055000144B3B6004E03B681A1D3A6000221A60AD
:100560003B68114A9342F6D3104B7B607B68104A7C
:1005700023F07F0393600F4B002B01D00D4B984766
:1005800000F072FA0C4B002B01D00B4B9847FFF791
:10059000BBFF00BFFDE700BFAC0B00000000002068
:1005A0003000002030000020F40100200000000096
:1005B00000ED00E0000000000000000080B400AF8B
:1005C00000BFFDE780B483B000AF0346FB80B7F9FE
:1005D0000630002B0BDBFB8803F01F020649B7F93E
:1005E00006305B09012000FA02F241F8232000BF27
:1005F0000C37BD4680BC704700E100E090B486B087
:1006000000AF0446084611461A462346FB710346CE
:10061000BB710B467B7113463B717B79002B02D07B
:100620004FF0005300E000237B613B79002B01D0A9
:10063000002301E04FF080533B61BB79002B02D0D7
:100640004FF4003300E00023FB60FB79002B01D165
:100650000123FB710F4AFB68536000BF0D4BDB6940
:10066000002BFBD10B4AFB7913737A693B69134367
:10067000084A43F4401343F00E03136000BF054BD8
:10068000DB69002BFBD100BF00BF1837BD4690BC13
:10069000704700BF0034004080B400AF074B002219
:1006A0001A60064B00225A6000BF044BDB69002B26
:1006B000FBD100BF00BFBD4680BC70470034004086
:1006C00080B500AF3220FFF77DFF2D4B2D4ADA6257
:1006D00000BF2B4B5B6803F02003202BF9D0284B85
:1006E0004322C3F8A02000BF254BD3F8A03003F06D
:1006F0004003402BF8D1244B5B69234A43F4005359
:100700005361224B93F85030DBB2204A43F001038F
:10071000DBB282F850301D4B93F83830DBB21B4A05
:1007200043F00203DBB282F83830184B93F85130B3
:10073000DBB2164A43F00103DBB282F85130134BAF
:1007400093F83830DBB2114A43F02003DBB282F871
:1007500038300E4B93F85330DBB20C4A43F00303AE
:10076000DBB282F85330094B93F83930DBB2074AD9
:1007700043F02003DBB282F8393000BF80BD00BFF8
:10078000001C0040060101000008004000800041FC
:1007900080B483B000AF0346FB710B4B04225A8335
:1007A000094B80221A76084AFB79936200BF064BF8
:1007B0001B7EDBB203F00203002BF8D000BF00BFAA
:1007C0000C37BD4680BC70470034004080B582B015
:1007D00000AF0346FB71094B4FF40072C3F894203D
:1007E000FB791846FFF7D4FF044B4FF40072C3F8AF
:1007F000982000BF0837BD4680BD00BF0080004183
:1008000080B500AF0123002200210120FFF7F6FE92
:10081000024B1022C3F8942000BF80BD008000412D
:1008200080B500AF034B1022C3F89820FFF734FFC8
:1008300000BF80BD0080004180B500AFFFF7E0FF42
:10084000AF20FFF7C3FFFFF7EBFF00BF80BD80B510
:1008500082B000AF0346FB710B46BB711346BB80F1
:10086000FFF7CEFF1520FFF7B1FFFB791033DBB2A6
:100870001846FFF78DFFFB791033DBB21846FFF700
:1008800087FF7520FFF7A2FFBB791846FFF780FFAF
:10089000BB791846FFF77CFF5C20FFF797FFBB880A
:1008A0001B0A9BB2DBB21846FFF772FFBB88DBB2B4
:1008B0001846FFF76DFFFFF7B3FF00BF0837BD46CF
:1008C00080BD000080B582B000AF0346FB710B46CF
:1008D000BB711346BB80114B1B7883F00103DBB265
:1008E000002B08D00E4B1B780E4A117800221846B8
:1008F000FFF7ADFF02E0094B00221A70BA88B97900
:10090000FB791846FFF7A3FF054AFB791370054AE8
:10091000BB79137000BF0837BD4680BD280000209A
:10092000580000205900002080B582B000AFFFF7CA
:1009300067FF1520FFF74AFF0020FFF729FF7F2000
:10094000FFF726FF7520FFF741FF0020FFF720FF8C
:100950007F20FFF71DFF5C20FFF738FF00237B603F
:1009600011E000233B6008E00020FFF711FF0020AA
:10097000FFF70EFF3B6801333B603B687F2BF3DDE5
:100980007B6801337B607B687F2BEADDFFF748FFE4
:1009900000BF0837BD4680BD80B582B000AFFFF70D
:1009A0008FFE2F4B4022C3F888202D4B4022C3F8E6
:1009B00094202B4B4022C3F89820294B8022C3F867
:1009C0008820274B1022C3F88820254B1022C3F81B
:1009D0009820234B4FF48072C3F88820204B4FF4AB
:1009E0000072C3F888201E4B4FF40072C3F89820A1
:1009F0001B4B4FF48072C3F89420194B8022C3F82C
:100A00009820FFF719FFFFF7FBFEA020FFF7DEFE9F
:100A10003220FFF7BDFEA120FFF7D8FE2020FFF710
:100A2000B7FEB220FFF7D2FEA420FFF7B1FE0020F0
:100A3000FFF7AEFE0020FFF7ABFEFFF775FFFFF7F5
:100A4000EFFE00237B6002E07B6801337B607B6804
:100A5000044A9342F8DD00BF00BF0837BD4680BDA1
:100A6000008000413F420F0070B50F4B0F4DAB426D
:100A7000A3EB050607D0B610002455F8043B01345B
:100A80009847A642F9D800F07FF8094D094B5E1B44
:100A9000AB424FEAA60606D0002455F8043B0134C9
:100AA0009847A642F9D870BD940B0000940B000043
:100AB000940B00009C0B0000704700BF704700BF04
:100AC000024B13B1024800F005B870470000000067
:100AD000E10A0000002301461A46184600F014B847
:100AE00038B5074D074C2C1BA41005D0013C55F818
:100AF000043D9847002CF9D1BDE8384000F04EB8CD
:100B0000AC0B0000A80B00002DE9F8431B4D064676
:100B1000286898460F469146FFF7CEFF184B1C6891
:100B20001CB3286865681F2D22DC4EB96B1C02358A
:100B3000636044F82570FFF7C1FF0020BDE8F8832B
:100B400004EB85010123C1F88890D4F88821AB40DB
:100B50001A43022EC4F88821C1F80881E6D1D4F8DE
:100B60008C211A43C4F88C21E0E7064C1C60D8E7BE
:100B7000FFF7A4FF4FF0FF30E0E700BF2C0000209C
:100B80006000002064000020F8B500BFF8BC08BC7D
:100B90009E467047C10A0000C9020000F8B500BFB8
:0C0BA000F8BC08BC9E467047A102000093
:100BAC0080BB000080A9000000530000009F0000E3
:100BBC00003E0000010000000300000007000000E0
:100BCC002400000049000000010000005C0000202F
:00000001FF
