:10000000B8010120E5030000810400008104000024
:100010008104000081040000810400000000000051
:10002000000000000000000000000000810400004B
:100030008104000000000000810400008104000031
:10004000810400008104000081040000810400009C
:10005000810400008104000081040000810400008C
:10006000810400008104000081040000810400007C
:10007000810400008104000081040000810400006C
:10008000810400008104000081040000810400005C
:10009000810400008104000081040000810400004C
:1000A000810400008104000081040000810400003C
:1000B000810400008104000081040000810400002C
:1000C000810400008104000081040000810400001C
:1000D000810400008104000081040000810400000C
:1000E0008104000081040000000000000000000006
:1000F0000000000081040000810400008104000071
:1001000081040000810400008104000081040000DB
:1001100081040000810400008104000081040000CB
:1001200081040000810400008104000081040000BB
:1001300081040000810400008104000081040000AB
:10014000810400008104000081040000810400009B
:100150008104000081040000000000000000000095
:10016000000000000000000000000000000000008F
:100170000000000000000000810400008104000075
:10018000810400008104000081040000810400005B
:1001900000000000810400008104000081040000D0
:1001A000810400008104000081040000810400003B
:1001B000810400008104000081040000810400002B
:1001C000810400008104000081040000810400001B
:1001D000810400008104000081040000810400000B
:1001E00081040000810400008104000081040000FB
:1001F00081040000810400008104000081040000EB
:1002000081040000000000000000000081040000E4
:1002100081040000810400008104000081040000CA
:1002200081040000810400008104000081040000BA
:1002300081040000810400008104000081040000AA
:10024000810400008104000081040000810400009A
:10025000810400008104000081040000810400008A
:100260000348044B834202D0034B03B11847704745
:10027000040D0000040D0000000000000548064BBE
:100280001B1AD90F01EBA301491002D0034B03B194
:1002900018477047040D0000040D00000000000026
:1002A00010B5064C237843B9FFF7DAFF044B13B1BE
:1002B0000448AFF300800123237010BD0400002028
:1002C00000000000040D000008B5054B1BB10549F6
:1002D0000548AFF30080BDE80840FFF7CFBF00BF7F
:1002E0000000000008000020040D000080B584B06C
:1002F00000AF0346FB71012300220121012000F021
:1003000029F9FB799B08DBB243F00603FB73FB7909
:100310009B01BB73104B2022C3F89420FB7B184633
:1003200000F094F9BB7B184600F090F900F074F9E6
:1003300003467B7300F070F9034603F007033B7339
:10034000054B2022C3F8982000F052F93B7B9BB26A
:1003500018461037BD4680BD0080004180B582B090
:1003600000AF00F089FB00F08FF81C4B2022C3F88F
:1003700088201A4B2022C3F898200120FFF7B6FFEF
:100380000346FB800020FFF7B1FF0346BB80FA88DD
:10039000134BA3FB0213D9080B469B000B445B00D5
:1003A000D31A9BB2DBB240F2FF1240213C2000F096
:1003B000B1FABA880A4BA3FB0213D9080B469B007B
:1003C0000B445B00D31A9BB2DBB240F2FF12402118
:1003D0002A2000F09FFA00BFCFE700BF0080004155
:1003E000CDCCCCCC80B582B000AF1C4B7B601C4B1D
:1003F0003B607A683B689A420CD007E07A68131D2C
:100400007B603B68191D396012681A603B68154AA9
:100410009342F3D3144B3B6004E03B681A1D3A60EF
:1004200000221A603B68114A9342F6D3104B7B605E
:100430007B68104A23F07F0393600F4B002B01D0A1
:100440000D4B984700F080FB0C4B002B01D00B4B61
:100450009847FFF783FF00BFFDE700BF040D0000D2
:10046000000000200400002004000020B80100204B
:100470000000000000ED00E00000000000000000AF
:1004800080B400AF00BFFDE780B400AF2D4B2E4A13
:10049000DA6200BF2B4B5B6803F02003202BF9D0FE
:1004A000284B4322C3F8A02000BF264BD3F8A0302E
:1004B00003F04003402BF8D1244B5B69234A43F4FB
:1004C00000535361224B93F85030DBB2204A43F083
:1004D0000103DBB282F850301D4B93F83830DBB2A9
:1004E0001B4A43F00203DBB282F83830184B93F812
:1004F0005130DBB2164A43F00103DBB282F85130CF
:10050000134B93F83830DBB2114A43F02003DBB2CF
:1005100082F838300E4B93F85330DBB20C4A43F07C
:100520000303DBB282F85330094B93F83930DBB266
:10053000074A43F02003DBB282F8393000BFBD46E2
:1005400080BC7047001C004006010100000800400C
:100550000080004190B486B000AF044608461146C2
:100560001A462346FB710346BB710B467B7113464B
:100570003B717B79002B02D04FF0005300E0002349
:100580007B613B79002B01D0002301E04FF08053C9
:100590003B61BB79002B02D04FF4003300E0002315
:1005A000FB60FB79002B01D10123FB710F4AFB6833
:1005B000536000BF0D4BDB69002BFBD10B4AFB796D
:1005C00013737A693B691343084A43F4401343F0B9
:1005D0000E03136000BF054BDB69002BFBD100BF8E
:1005E00000BF1837BD4690BC704700BF00340040C4
:1005F00080B400AF074B00221A60064B00225A60FD
:1006000000BF044BDB69002BFBD100BF00BFBD4620
:1006100080BC70470034004080B483B000AF00233A
:100620007B6000BF084B1B7EDBB203F00403042B8E
:10063000F8D1054B9B6A7B607B68DBB218460C37B0
:10064000BD4680BC704700BF0034004080B483B01A
:1006500000AF0346FB710B4B04225A83094B8022E7
:100660001A76084AFB79936200BF064B1B7EDBB209
:1006700003F00203002BF8D000BF00BF0C37BD46CB
:1006800080BC70470034004080B483B000AF0346A4
:10069000FB80B7F90630002B0BDBFB8803F01F0251
:1006A0000649B7F906305B09012000FA02F241F869
:1006B000232000BF0C37BD4680BC704700E100E03E
:1006C00090B486B000AF0446084611461A46234649
:1006D000FB710346BB710B467B7113463B717B7903
:1006E000002B02D04FF0005300E000237B613B79E8
:1006F000002B01D0002301E04FF080533B61BB7918
:10070000002B02D04FF4003300E00023FB60FB79A4
:10071000002B01D10123FB710F4AFB68536000BF1E
:100720000D4BDB69002BFBD10B4AFB7913737A6904
:100730003B691343084A43F4401343F00E0313602C
:1007400000BF054BDB69002BFBD100BF00BF183792
:10075000BD4690BC704700BF0034004080B400AF7D
:10076000074B00221A60064B00225A6000BF044B60
:10077000DB69002BFBD100BF00BFBD4680BC7047CA
:100780000034004080B500AF3220FFF77DFF2D4BD5
:100790002D4ADA6200BF2B4B5B6803F02003202B4D
:1007A000F9D0284B4322C3F8A02000BF254BD3F833
:1007B000A03003F04003402BF8D1244B5B69234A5F
:1007C00043F400535361224B93F85030DBB2204A7C
:1007D00043F00103DBB282F850301D4B93F8383000
:1007E000DBB21B4A43F00203DBB282F83830184B0D
:1007F00093F85130DBB2164A43F00103DBB282F8C2
:100800005130134B93F83830DBB2114A43F02003D8
:10081000DBB282F838300E4B93F85330DBB20C4A1F
:1008200043F00303DBB282F85330094B93F83930BD
:10083000DBB2074A43F02003DBB282F8393000BF55
:1008400080BD00BF001C0040060101000008004000
:100850000080004180B483B000AF0346FB710B4BB6
:1008600004225A83094B80221A76084AFB79936244
:1008700000BF064B1B7EDBB203F00203002BF8D057
:1008800000BF00BF0C37BD4680BC7047003400403D
:1008900080B582B000AF0346FB71094B4FF4007284
:1008A000C3F89420FB791846FFF7D4FF044B4FF4AC
:1008B0000072C3F8982000BF0837BD4680BD00BF56
:1008C0000080004180B500AF0123002200210120FB
:1008D000FFF7F6FE024B1022C3F8942000BF80BD44
:1008E0000080004180B500AF034B1022C3F8982070
:1008F000FFF734FF00BF80BD0080004180B500AF2E
:10090000FFF7E0FFAF20FFF7C3FFFFF7EBFF00BFEC
:1009100080BD000090B587B000AF04460846114680
:100920001A462346FB710346BB710B46BB80134638
:10093000FB70FB78092B61D8FFF7C4FF00233B61F4
:1009400057E01520FFF7A4FFBB791033DBB2184640
:10095000FFF780FFBB791833DBB21846FFF77AFF49
:100960007520FFF795FF3B69DBB2FA79D31ADBB24A
:100970000C33DBB21846FFF76DFF3B69DBB2FA7947
:10098000D31ADBB20C33DBB21846FFF763FF5C20EF
:10099000FFF77EFFFA781B4913465B0013449B0068
:1009A000CA183B6913441B78FB750023FB601AE0EF
:1009B00097F91730002B02DABB88BB8201E00023D5
:1009C000BB82BB8A1B0A9BB2DBB21846FFF742FF11
:1009D000BB8ADBB21846FFF73DFFFB7D5B00FB7572
:1009E000FB680133FB60FB68072BE1DD3B690133EA
:1009F0003B613B690B2BA4DDFFF774FF00BF1C3785
:100A0000BD4690BD680C000080B582B000AFFFF716
:100A100059FF1520FFF73CFF0020FFF71BFF7F2049
:100A2000FFF718FF7520FFF733FF0020FFF712FFD5
:100A30007F20FFF70FFF5C20FFF72AFF00237B607A
:100A400011E000233B6008E00020FFF703FF0020D7
:100A5000FFF700FF3B6801333B603B687F2BF3DD12
:100A60007B6801337B607B687F2BEADDFFF73AFF11
:100A700000BF0837BD4680BD80B582B000AFFFF72C
:100A800081FE2F4B4022C3F888202D4B4022C3F813
:100A900094202B4B4022C3F89820294B8022C3F886
:100AA0008820274B1022C3F88820254B1022C3F83A
:100AB0009820234B4FF48072C3F88820204B4FF4CA
:100AC0000072C3F888201E4B4FF40072C3F89820C0
:100AD0001B4B4FF48072C3F89420194B8022C3F84B
:100AE0009820FFF70BFFFFF7EDFEA020FFF7D0FEE9
:100AF0003220FFF7AFFEA120FFF7CAFE2020FFF74C
:100B0000A9FEB220FFF7C4FEA420FFF7A3FE002039
:100B1000FFF7A0FE0020FFF79DFEFFF775FFFFF730
:100B2000E1FE00237B6002E07B6801337B607B6831
:100B3000044A9342F8DD00BF00BF0837BD4680BDC0
:100B4000008000413F420F0070B50F4B0F4DAB428C
:100B5000A3EB050607D0B610002455F8043B01347A
:100B60009847A642F9D800F0BBF8094D094B5E1B27
:100B7000AB424FEAA60606D0002455F8043B0134E8
:100B80009847A642F9D870BDEC0C0000EC0C0000B0
:100B9000EC0C0000F40C0000704700BF704700BF71
:100BA000024B13B1024800F005B870470000000086
:100BB000C10B0000002301461A46184600F014B885
:100BC00038B5074D074C2C1BA41005D0013C55F837
:100BD000043D9847002CF9D1BDE8384000F08AB8B0
:100BE000040D0000000D00002DE9F8431B4D0646E2
:100BF000286898460F469146FFF7CEFF184B1C68B1
:100C00001CB3286865681F2D22DC4EB96B1C0235A9
:100C1000636044F82570FFF7C1FF0020BDE8F8834A
:100C200004EB85010123C1F88890D4F88821AB40FA
:100C30001A43022EC4F88821C1F80881E6D1D4F8FD
:100C40008C211A43C4F88C21E0E7064C1C60D8E7DD
:100C5000FFF7A4FF4FF0FF30E0E700BF00000020E7
:100C600024000020280000207E8181819999999993
:100C70008181817E7F08080808080808482818082C
:100C80007E80808080807E010101017E7E010101E5
:100C900001017E010101017E0101010101017E814D
:100CA000818181817E01010101017E808080807EC1
:100CB0007E81818181817E808080807E020202022D
:100CC000020101010101017E7E81818181817E819C
:100CD0008181817E0101010101017E818181817E0D
:100CE000F8B500BFF8BC08BC9E467047A10B0000D9
:100CF000C9020000F8B500BFF8BC08BC9E467047AA
:040D0000A10200004C
:040D040020000020AB
:00000001FF
