:10000000B801012029050000C5050000C505000054
:10001000C5050000C5050000C50500000000000082
:10002000000000000000000000000000C505000006
:10003000C505000000000000C5050000C505000062
:10004000C5050000C5050000C5050000C505000088
:10005000C5050000C5050000C5050000C505000078
:10006000C5050000C5050000C5050000C505000068
:10007000C5050000C5050000C5050000C505000058
:10008000C5050000C5050000C5050000C505000048
:10009000C5050000C5050000C5050000C505000038
:1000A000C5050000C5050000C5050000C505000028
:1000B000C5050000C5050000C5050000C505000018
:1000C000C5050000C5050000C5050000C505000008
:1000D000C5050000C5050000C5050000C5050000F8
:1000E000C5050000C505000000000000000000007C
:1000F00000000000C5050000C5050000C5050000A2
:10010000C5050000C5050000C5050000C5050000C7
:10011000C5050000C5050000C5050000C5050000B7
:10012000C5050000C5050000C5050000C5050000A7
:10013000C5050000C5050000C5050000C505000097
:10014000C5050000C5050000C5050000C505000087
:10015000C5050000C505000000000000000000000B
:10016000000000000000000000000000000000008F
:100170000000000000000000C5050000C5050000EB
:10018000C5050000C5050000C5050000C505000047
:1001900000000000C5050000C5050000C505000001
:1001A000C5050000C5050000C5050000C505000027
:1001B000C5050000C5050000C5050000C505000017
:1001C000C5050000C5050000C5050000C505000007
:1001D000C5050000C5050000C5050000C5050000F7
:1001E000C5050000C5050000C5050000C5050000E7
:1001F000C5050000C5050000C5050000C5050000D7
:10020000C50500000000000000000000C50500005A
:10021000C5050000C5050000C5050000C5050000B6
:10022000C5050000C5050000C5050000C5050000A6
:10023000C5050000C5050000C5050000C505000096
:10024000C5050000C5050000C5050000C505000086
:10025000C5050000C5050000C5050000C505000076
:100260000348044B834202D0034B03B11847704745
:100270001007000010070000000000000548064BB2
:100280001B1AD90F01EBA301491002D0034B03B194
:10029000184770471007000010070000000000001A
:1002A00010B5064C237843B9FFF7DAFF044B13B1BE
:1002B0000448AFF300800123237010BD0400002028
:1002C000000000001007000008B5054B1BB10549F0
:1002D0000548AFF30080BDE80840FFF7CFBF00BF7F
:1002E00000000000080000201007000080B483B068
:1002F00000AF0346FB80B7F90630002B0BDBFB8811
:1003000003F01F020649B7F906305B09012000FA25
:1003100002F241F8232000BF0C37BD4680BC704775
:1003200000E100E080B400AF00BF044B1B68002B6D
:10033000FBD100BF00BFBD4680BC70471C340040ED
:1003400080B582B000AF0346FB71FFF7EBFF034AB5
:10035000FB79136000BF0837BD4680BD10340040F4
:1003600080B582B000AF0346FB71084B4FF40072BA
:100370001A60FB791846FFF7E3FF054B4FF4007254
:100380001A6000BF0837BD4680BD00BF988000419D
:100390009480004180B400AF044B054A1A60054BBD
:1003A00010221A6000BFBD4680BC70470034004078
:1003B0000E0032001480004180B500AF044B1022C3
:1003C0001A60044B00221A60FFF7ACFF00BF80BD2B
:1003D000108000410034004080B500AFFFF7DAFF25
:1003E000AF20FFF7BDFFFFF7E7FF00BF80BD0000B4
:1003F00080B582B000AF3220FFF778FF204B214A52
:100400001A6000BF204B1B6803F02003002BF9D1BA
:100410001E4B4FF400721A601D4B4FF480721A602D
:100420001C4B80221A60FFF7D7FFFFF7B3FFA02015
:10043000FFF796FF3220FFF783FFA120FFF790FF21
:100440002020FFF77DFFB220FFF78AFFA420FFF7EF
:1004500077FF0020FFF774FF0020FFF771FFFFF721
:10046000ABFF00237B6002E07B6801337B607B682D
:10047000094A9342F8DD00BF00BF0837BD4680BD82
:100480002C340040060101001C34004088800041EB
:1004900098800041108000413F420F0080B582B03B
:1004A00000AF0346FB710B46BB711346BB80FFF7E1
:1004B00071FF1520FFF754FFFB791033DBB21846AC
:1004C000FFF73EFFFB791033DBB21846FFF738FF2A
:1004D0007520FFF745FFBB791846FFF731FFBB7961
:1004E0001846FFF72DFF5C20FFF73AFFBB881B0A79
:1004F0009BB2DBB21846FFF723FFBB88DBB218467E
:10050000FFF71EFFFFF758FF00BF0837BD4680BD4D
:1005100080B500AFFFF76CFF4FF6FF72002100209F
:10052000FFF7BCFF00BFFDE780B582B000AF1C4BFA
:100530007B601C4B3B607A683B689A420CD007E0BA
:100540007A68131D7B603B68191D396012681A6058
:100550003B68154A9342F3D3144B3B6004E03B687D
:100560001A1D3A6000221A603B68114A9342F6D382
:10057000104B7B607B68104A23F07F0393600F4B26
:10058000002B01D00D4B984700F020F80C4B002BAE
:1005900001D00B4B9847FFF7BBFF00BFFDE700BF43
:1005A00010070000000000200400002004000020CC
:1005B000B80100200000000000ED00E00000000095
:1005C0000000000080B400AF00BFFDE770B50F4B26
:1005D0000F4DAB42A3EB050607D0B610002455F82B
:1005E000043B01349847A642F9D800F07FF8094D42
:1005F000094B5E1BAB424FEAA60606D0002455F815
:10060000043B01349847A642F9D870BDF8060000B3
:10061000F8060000F806000000070000704700BF61
:10062000704700BF024B13B1024800F005B8704795
:100630000000000045060000002301461A46184647
:1006400000F014B838B5074D074C2C1BA41005D08A
:10065000013C55F8043D9847002CF9D1BDE83840DD
:1006600000F04EB8100700000C0700002DE9F84319
:100670001B4D0646286898460F469146FFF7CEFF69
:10068000184B1C681CB3286865681F2D22DC4EB906
:100690006B1C0235636044F82570FFF7C1FF002032
:1006A000BDE8F88304EB85010123C1F88890D4F8F4
:1006B0008821AB401A43022EC4F88821C1F8088172
:1006C000E6D1D4F88C211A43C4F88C21E0E7064C1B
:1006D0001C60D8E7FFF7A4FF4FF0FF30E0E700BF52
:1006E000000000202400002028000020F8B500BFF2
:1006F000F8BC08BC9E46704725060000C9020000F1
:10070000F8B500BFF8BC08BC9E467047A1020000C7
:0407100020000020A5
:00000001FF
