:1000000080F601201D050000B9050000B9050000BB
:10001000B9050000B9050000B905000000000000A6
:10002000000000000000000000000000B905000012
:10003000B905000000000000B905000095040000AB
:10004000B9050000B9050000B9050000B9050000B8
:10005000B9050000B9050000B9050000B9050000A8
:10006000B9050000B9050000B9050000B905000098
:10007000B9050000B9050000B9050000B905000088
:10008000B9050000B9050000B9050000B905000078
:10009000B9050000B9050000B9050000B905000068
:1000A000B9050000B9050000D5030000BD0300003C
:1000B000B9050000B9050000B9050000B905000048
:1000C000B9050000B9050000B9050000B905000038
:1000D000B9050000B9050000B9050000B905000028
:1000E000B9050000B9050000000000000000000094
:1000F00000000000B9050000B9050000B9050000C6
:10010000B9050000B9050000B9050000B9050000F7
:10011000B9050000B9050000B9050000B9050000E7
:10012000B9050000B9050000B9050000B9050000D7
:10013000B9050000B9050000B9050000B9050000C7
:10014000B9050000B9050000B9050000B9050000B7
:10015000B9050000B9050000000000000000000023
:10016000000000000000000000000000000000008F
:100170000000000000000000B9050000B905000003
:10018000B9050000B9050000B9050000B905000077
:1001900000000000B9050000B9050000B905000025
:1001A000B9050000B9050000B9050000B905000057
:1001B000B9050000B9050000B9050000B905000047
:1001C000B9050000B9050000B9050000B905000037
:1001D000B9050000B9050000B9050000B905000027
:1001E000B9050000B9050000B9050000B905000017
:1001F000B9050000B9050000B9050000B905000007
:10020000B90500000000000000000000B905000072
:10021000B9050000B9050000B9050000B9050000E6
:10022000B9050000B9050000B9050000B9050000D6
:10023000B9050000B9050000B9050000B9050000C6
:10024000B9050000B9050000B9050000B9050000B6
:10025000B9050000B9050000B9050000B9050000A6
:100260000348044B834202D0034B03B11847704745
:10027000141F0000141F0000000000000548064B7A
:100280001B1AD90F01EBA301491002D0034B03B194
:1002900018477047141F0000141F000000000000E2
:1002A00010B5064C237843B9FFF7DAFF044B13B1BE
:1002B0000448AFF300800123237010BD34020020F6
:1002C00000000000141F000008B5054B1BB10549D4
:1002D0000548AFF30080BDE80840FFF7CFBF00BF7F
:1002E0000000000038020020141F000080B483B01A
:1002F00000AF0346FB80B7F90630002B0BDBFB8811
:1003000003F01F020649B7F906305B09012000FA25
:1003100002F241F8232000BF0C37BD4680BC704775
:1003200000E100E080B483B000AF03463960FB8099
:10033000B7F90630002B0ADB3B68DAB20C49B7F993
:1003400006305201D2B20B4483F800230AE03B6826
:10035000DAB20849FB8803F00F03043B5201D2B222
:100360000B441A7600BF0C37BD4680BC704700BFF7
:1003700000E100E000ED00E080B582B000AF786001
:100380007B68013BB3F1807F01D301230FE00A4A70
:100390007B68013B536007214FF0FF30FFF7C2FF3E
:1003A000054B00229A60044B07221A60002318466E
:1003B0000837BD4680BD00BF10E000E080B500AF4B
:1003C000034B4FF400425A6100F07EFF00BF80BD36
:1003D0000028004080B500AF034B4FF480425A61C3
:1003E00001F092FB00BF80BD0028004080B500AF47
:1003F000254B4FF400425A60234B052283F84F20CF
:10040000214B002283F837201F4B4FF400429A61A2
:100410001D4B4FF48042C3F884201B4B052283F808
:10042000CE20194B002283F8B720174B4FF480429F
:10043000C3F89820154B5B69144A43F480635361F9
:10044000134B1B6A124A43F080531362104B1B6913
:100450000F4A43F4004313610D4B1B6A0C4A43F0EF
:10046000007313620A4B1B69094A43F4804313610A
:100470001B20FFF73BFF1A20FFF738FF044B122227
:100480001A7000BF80BD00BF00800041000800401E
:100490000028004080B400AF044B1B680133034ABE
:1004A000136000BFBD4680BC704700BF50020020F3
:1004B00098B500AF4BF68030FFF75EFF4FF0FF308E
:1004C000FFF714FF00F07CF800F030FA00F052FB68
:1004D00000F078FB0C2000F091FD00F007FEFFF724
:1004E00085FF012000F01CFB03461C46002000F0A5
:1004F00017FB03461946204600F028FD00F0F4FBE8
:1005000000F0C4FF01F01AFA01F0DEF800F0EEFD91
:1005100000F082FC00F0BCFB00BFE2E780B582B0D7
:1005200000AF1C4B7B601C4B3B607A683B689A4277
:100530000CD007E07A68131D7B603B68191D396099
:1005400012681A603B68154A9342F3D3144B3B6020
:1005500004E03B681A1D3A6000221A603B68114AA9
:100560009342F6D3104B7B607B68104A23F07F03E5
:1005700093600F4B002B01D00D4B984701F080FB8F
:100580000C4B002B01D00B4B9847FFF791FF00BF9E
:10059000FDE700BF141F000000000020340200200F
:1005A000340200207CF600200000000000ED00E096
:1005B000000000000000000080B400AF00BFFDE7B5
:1005C00080B400AF2E4B2F4A9A6400BF2C4B5B685F
:1005D00003F48053B3F5805FF8D0294B4A22C3F867
:1005E0000C2100BF264BD3F80C3103F04003402B05
:1005F000F8D1254B1B6A244A43F002031362234BB4
:1006000093F8D030DBB2214A43F00103DBB282F829
:10061000D0301E4B93F8B830DBB21C4A43F00203D3
:10062000DBB282F8B830194B93F8D130DBB2174AFD
:1006300043F00103DBB282F8D130144B93F8B830A9
:10064000DBB2124A43F02003DBB282F8B830104B21
:1006500000229A810E4B4FF480325A6000BF0C4B3F
:10066000DB69002BFBD10A4B0A4A1A6000BF084B1A
:10067000DB69002BFBD100BF00BFBD4680BC7047CB
:10068000001C004006011A000008004000800041E4
:10069000000400430600104080B400AF2D4B2E4AEA
:1006A000DA6200BF2B4B5B6803F02003202BF9D0EC
:1006B000284B4322C3F8A02000BF264BD3F8A0301C
:1006C00003F04003402BF8D1244B5B69234A43F4E9
:1006D00000535361224B93F85030DBB2204A43F071
:1006E0000103DBB282F850301D4B93F83830DBB297
:1006F0001B4A43F00203DBB282F83830184B93F800
:100700005130DBB2164A43F00103DBB282F85130BC
:10071000134B93F83830DBB2114A43F02003DBB2BD
:1007200082F838300E4B93F85330DBB20C4A43F06A
:100730000303DBB282F85330094B93F83930DBB254
:10074000074A43F02003DBB282F8393000BFBD46D0
:1007500080BC7047001C00400601010000080040FA
:100760000080004190B486B000AF044608461146B0
:100770001A462346FB710346BB710B467B71134639
:100780003B717B79002B02D04FF0005300E0002337
:100790007B613B79002B01D0002301E04FF08053B7
:1007A0003B61BB79002B02D04FF4003300E0002303
:1007B000FB60FB79002B01D10123FB710F4AFB6821
:1007C000536000BF0D4BDB69002BFBD10B4AFB795B
:1007D00013737A693B691343084A43F4401343F0A7
:1007E0000E03136000BF054BDB69002BFBD100BF7C
:1007F00000BF1837BD4690BC704700BF00340040B2
:1008000080B400AF074B00221A60064B00225A60EA
:1008100000BF044BDB69002BFBD100BF00BFBD460E
:1008200080BC70470034004080B483B000AF002328
:100830007B6000BF084B1B7EDBB203F00403042B7C
:10084000F8D1054B9B6A7B607B68DBB218460C379E
:10085000BD4680BC704700BF0034004080B483B008
:1008600000AF0346FB710B4B04225A83094B8022D5
:100870001A76084AFB79936200BF064B1B7EDBB2F7
:1008800003F00203002BF8D000BF00BF0C37BD46B9
:1008900080BC70470034004080B500AF01230022C7
:1008A00000210120FFF75EFF024B1022C3F89420C5
:1008B00000BF80BD0080004180B500AFFFF7A0FF02
:1008C000024B1022C3F8982000BF80BD0080004179
:1008D00080B582B000AF0346FB71094B4FF4007244
:1008E000C3F89420FB791846FFF7B8FF044B4FF488
:1008F0000072C3F8982000BF0837BD4680BD00BF16
:100900000080004180B582B000AF0346FB71064B0A
:100910004FF40072C3F89820FB791846FFF79EFF4A
:1009200000BF0837BD4680BD0080004180B582B061
:1009300000AFFFF7B1FE394B4FF43472C3F8882093
:10094000364B4FF43072C3F89820344B1022C3F862
:100950009420FFF7A1FFAF20FFF7BAFFA620FFF713
:10096000B7FFA120FFF7B4FF0020FFF7CBFFFD206A
:10097000FFF7AEFF1220FFF7C5FFFD20FFF7A8FF2E
:10098000B120FFF7BFFFA220FFF7A2FF0020FFF773
:10099000B9FFA020FFF79CFF3120FFF7B3FFB22083
:1009A000FFF796FF0020FFF7ADFF0020FFF7AAFF3B
:1009B0001520FFF78DFF0020FFF7A4FF7F20FFF732
:1009C000A1FF7520FFF784FF0020FFF79BFF7F202A
:1009D000FFF798FF5C20FFF77BFF00237B6008E0B8
:1009E0000020FFF78FFF0020FFF78CFF7B680133AB
:1009F0007B607B68B3F5804FF2DBFFF75DFF002380
:100A00003B6002E03B6801333B603B68044A934231
:100A1000F8DD00BF00BF0837BD4680BD0080004143
:100A20003F420F0090B585B000AF0446084611461E
:100A30001A462346FB710346BB710B467B71134676
:100A40003B71FFF729FF1520FFF742FFFB791033B9
:100A5000DBB21846FFF756FFFA79BB791344DBB2D5
:100A60000F33DBB21846FFF74DFF7520FFF730FF5D
:100A70007B791846FFF746FF3A797B791344DBB25E
:100A8000013BDBB21846FFF73DFF5C20FFF720FF7C
:100A90000023FB600023BB6019E0FB685B003A6A3F
:100AA00013441B881B0A9BB2DBB21846FFF72AFFD0
:100AB000FB685B003A6A13441B88DBB21846FFF7F9
:100AC00021FFFB680133FB60BB680133BB60BB796E
:100AD0003A7902FB03F3BA689A42DEDBFFF7ECFED9
:100AE00000BF1437BD4690BD80B500AF0123002282
:100AF00001210120FFF736FE024B2022C3F894208B
:100B000000BF80BD0080004180B500AFFFF778FED8
:100B1000024B2022C3F8982000BF80BD0080004116
:100B200080B584B000AF0346FB71FB799B08DBB254
:100B300043F00603FB73FB799B01BB73FFF7D4FF04
:100B4000FB7B1846FFF78AFEBB7B1846FFF786FE45
:100B5000FFF76AFE03467B73FFF766FE034603F06A
:100B600007033B73FFF7D0FF3B7B18461037BD46AA
:100B700080BD000080B500AFFFF78EFD044B202242
:100B8000C3F88820024B2022C3F8982000BF80BD04
:100B90000080004180B582B000AF7860396001F01C
:100BA00053F8024639687B68CB1A013392FBF3F1A4
:100BB00001FB03F3D21A7B68134418460837BD467D
:100BC00080BD000080B584B000AF0023FB602AE048
:100BD0000023BB6021E060210020FFF7DBFF03461C
:100BE0005F2B0CDD2749FA6813465B0013445B0159
:100BF000BA6813444FF6FF7221F813200AE0214926
:100C0000FA6813465B0013445B01BA681344002280
:100C100021F81320BB680133BB60BB685F2BDADDB2
:100C2000FB680133FB60FB687F2BD1DD00237B6019
:100C30000AE0144A7B6832F81310134A7B6822F8E2
:100C400013107B6801337B607B68B3F5105FF0DBCA
:100C500000233B600DE04FF6FF710020FFF79AFF85
:100C6000034699B2094A3B6822F813103B680133E6
:100C70003B603B68B3F5105FEDDB00BF00BF103792
:100C8000BD4680BD580200205C6200205CAA0020A6
:100C900080B584B002AF114B1B78002B11D000231C
:100CA0007B600AE00E4A7B6832F813100D4A7B68BD
:100CB00022F813107B6801337B607B68B3F5105F0B
:100CC000F0DB084B00936023002260210020FFF737
:100CD000A9FE00BF0837BD4680BD00BF54020020FA
:100CE0005CAA00205C62002080B483B000AF224B7D
:100CF0001B78013B5A4203F07F0302F07F0258BF8A
:100D00005342DAB21C4B1A7000237B602BE00023A5
:100D10003B6022E0184B1B781A467B68134459420B
:100D200003F07F0201F07F0358BF5A421349134674
:100D30005B0013445B013A68134431F81300104917
:100D40007A6813465B0013445B013A681344024619
:100D500021F813203B6801333B603B685F2BD9DDF2
:100D60007B6801337B607B685F2BD0DD00BF00BFF9
:100D70000C37BD4680BC70475862002058020020E6
:100D80005C62002080B487B000AFF860B9607A6020
:100D90003B60FA683B6A9A4207DB3A6ABB6A1344D3
:100DA000FA689A4201DC012300E00023FB75FB7D19
:100DB00003F00103FB75BA687B6A9A4205DB7A6A25
:100DC000FB6A1344BA689A420DDDBA683B68134463
:100DD0007A6A9A4209DCBA683B681A44796AFB6A03
:100DE0000B449A4201DC012300E00023BB75BB7D6C
:100DF00003F00103BB75FB7D002B04D0BB7D002BF2
:100E000001D0012300E0002303F00103DBB2184608
:100E10001C37BD4680BC704790B482B000AF002341
:100E20007B602EE000233B6025E01A497B68DA00F6
:100E30003B68134431F81330002B19D0164B1B7844
:100E40001A467B681A44154B1B7819463B681944AF
:100E5000104C7B68D8003B68034434F813401048BA
:100E600013465B0013445B010B44224620F8132019
:100E70003B6801333B603B68072BD6DD7B68013361
:100E80007B607B680C2BCDDD00BF00BF0837BD4603
:100E900090BC7047A01D0000000000200100002051
:100EA0005C620020B0B483B000AF00237B6039E007
:100EB00000233B6030E020497B68DA003B68134444
:100EC00031F81330002B24D01C4B1B781A467B685A
:100ED000D1181B4B1B781A463B68D418174B1B784C
:100EE0001A467B681A44164B1B7818463B68184410
:100EF000144D0B465B000B445B01234435F8134053
:100F0000114913465B0013445B010344224621F858
:100F100013203B6801333B603B68072BCBDD7B68CC
:100F200001337B607B680C2BC2DD00BF00BF0C3738
:100F3000BD46B0BC704700BFA01D000000000020EF
:100F400001000020580200205C62002080B584B0BF
:100F500000AF03460A46FB711346BB71FB79C3F130
:100F60000303FB60BB79033BBB60FB68002B02D132
:100F7000BB68002B39D01F4B1B781A46FB68134403
:100F8000FB601D4B1B781A46BB681344BB60FB68B3
:100F9000002B02DA0023FB6004E0FB68532B01DD29
:100FA0005323FB60BB68002B02DA0023BB6004E024
:100FB000BB68582B01DD5823BB600E4B1B781A46CB
:100FC000FB68934205D10C4B1B781A46BB689342D1
:100FD0000BD0FFF767FFFB68DAB2064B1A70BB68ED
:100FE000DAB2054B1A70FFF717FF00BF1037BD4686
:100FF00080BD00BF000000200100002080B584B04B
:1010000000AF78600023FB605DE0344B1B7819462D
:10101000334A0B465B000B44134402331B78002B0E
:101020003DD17B68002B3ADB18210020FFF7B2FD91
:1010300002462A4B1B781946D0B2294A0B465B0060
:101040000B44134402461A70244B1B78DB00234ADE
:101050001278D20011461846FFF79CFD02461F4B3E
:101060001B781946D0B21E4A0B465B000B44134452
:10107000013302461A70194B1B781946184A0B4661
:101080005B000B441344023301221A70154B1B788A
:101090000133DAB2134B1A707B68013B7B600F4B54
:1010A0001B785A1C104B83FB02135910D317C91A13
:1010B0000B465B000B449B00D11ACAB2074B1A7057
:1010C000FB680133FB60074B1B780B2B02D87B6856
:1010D000002B9ADA00BF1037BD4680BD81F2002098
:1010E0005CF2002080F20020ABAAAA2A90B486B05D
:1010F00000AF00237B6165E037497A6913465B00E6
:1011000013440B4402331B78002B58D032497A69C0
:1011100013465B0013440B441B78FB722E497A691B
:1011200013465B0013440B4401331B78BB7200234E
:101130003B6138E00023FB602FE028493B69DA007F
:10114000FB68134431F81330002B23D0FB7A9AB29A
:101150003B699BB213443B81BB7A9AB2FB689BB25A
:101160001344FB803B895F2B14D8FB885F2B11D87D
:101170003A89F988194C3B69D800FB68034434F874
:101180001340174813465B0013445B010B4422468F
:1011900020F81320FB680133FB60FB68072BCCDDD4
:1011A0003B6901333B613B69072BC3DD0A497A691F
:1011B00013465B0013440B44023301221A707B690F
:1011C00001337B617B690B2B96DD00BF00BF1837B5
:1011D000BD4690BC704700BF5CF20020701E00004E
:1011E0005C620020B0B586B000AF786031497A68A3
:1011F00013465B0013440B441B78FB732D497A683C
:1012000013465B0013440B4401331B78BB7300236C
:101210007B6131E000233B6128E027497B69DA00EC
:101220003B69134431F81330002B1CD0FA7B7B69E7
:10123000D118BA7B3B69D418FA7B7B691A44B87B16
:101240003B6918441D4D0B465B000B445B01234476
:1012500035F813401A4913465B0013445B010344FD
:10126000224621F813203B6901333B613B69072B80
:10127000D3DD7B6901337B617B69072BCADD114BB1
:101280001B78013BDAB20F4B1A700A497A68134691
:101290005B0013440B44023300221A70094B1B7885
:1012A000072B02D80120FFF7A9FE00BF1837BD4663
:1012B000B0BD00BF5CF20020701E0000580200208C
:1012C0005C62002080F2002090B484B000AF3F4BFD
:1012D0001B78002B74D03E4B1B78043B7B603D4B4E
:1012E0001B7802333B600023FB602FE00023BB60D0
:1012F00026E03949FB689A00BB68134431F8133083
:10130000002B1AD07A68FB681344002B15DB7A682F
:10131000FB681A443968BB6819442F4CFB68980075
:10132000BB68034434F813402C4813465B00134455
:101330005B010B44224620F81320BB680133BB60DD
:10134000BB68032BD5DDFB680133FB60FB68032B17
:10135000CCDD234B1A68234913465B0013449B00E2
:101360000B447A681A601E4B1A681E4913465B00CC
:1013700013449B000B4404333A681A60184B1A68F4
:10138000184913465B0013449B000B4408330122A9
:101390001A60134B1B68591C134B83FB01235A1013
:1013A000CB17D21A13465B0013449B00CA1A0C4B8E
:1013B0001A600B4B1B68002B02D1044B00221A70E1
:1013C00000BF1037BD4690BC704700BF0200002030
:1013D0000000002001000020040000205C620020CA
:1013E000A4F3002014F30020ABAAAA2AB0B487B05B
:1013F00000AFF860B9607A6000237B6136E00023BB
:101400003B612DE01E497B699A003B69134431F82A
:101410001330002B21D0BA687B691344002B1CDBEE
:10142000BA687B69D1187A683B69D418BA687B6955
:101430001A4478683B691844124D0B465B000B4414
:101440005B01234435F813400F4913465B001344F6
:101450005B010344224621F813203B6901333B61C1
:101460003B69032BCEDD7B6901337B617B69032BF9
:10147000C5DD00BF00BF1C37BD46B0BC704700BF14
:1014800004000020580200205C620020B0B590B03B
:1014900004AF0023FB6202E18549FA6A13465B0050
:1014A00013449B000B4408331B68002B00F0F480AE
:1014B0007F49FA6A13465B0013449B000B441B6888
:1014C0003B617B49FA6A13465B0013449B000B4463
:1014D00004331B68FB60FA683969F86AFFF786FF16
:1014E000012387F82B3000237B627AE071497A6A06
:1014F00013465B0013440B4402331B78002B6DD062
:101500006C497A6A13465B0013440B441B78BB603A
:1015100068497A6A13465B0013440B4401331B7815
:101520007B6008230393082302937B680193BB68C5
:10153000009304230422F9683869FFF723FC03466B
:10154000002B4BD05B497A6A13465B0013440B4473
:10155000023300221A70786AFFF744FE00233B62D0
:1015600028E00023FB611FE07A683B6AD118BA6863
:10157000FB69D4187A683B6A1A44B868FB69184456
:101580004D4D0B465B000B445B01234435F8134083
:101590004A4913465B0013445B010344224621F889
:1015A0001320FB690133FB61FB69072BDCDD3B6A20
:1015B00001333B623B6A072BD3DD3D49FA6A134690
:1015C0005B0013449B000B44083300221A603C4B21
:1015D00001221A70002387F82B3005E07B6A013363
:1015E0007B627B6A0B2B81DD97F82B30002B53D06D
:1015F0003B69053B3B613B6913F1030F3FDB002374
:10160000BB612FE000237B6126E02E49BB699A0075
:101610007B69134431F81330002B1AD03A69BB6947
:101620001344002B15DB3A69BB691A44F9687B69DE
:101630001944244CBB6998007B69034434F8134077
:101640001E4813465B0013445B010B44224620F8FE
:1016500013207B6901337B617B69032BD5DDBB697B
:101660000133BB61BB69032BCCDD1149FA6A134618
:101670005B0013449B000B443A691A600CE00C4970
:10168000FA6A13465B0013449B000B4408330022A4
:101690001A600B4B01221A70FB6A0133FB62FB6A72
:1016A0000B2B7FF7F9AE00BF00BF3037BD46B0BD92
:1016B00014F300205CF20020580200205C6200203D
:1016C000020000200400002090B589B000AF002384
:1016D000FB61CBE04FF0FF33BB6100237B6136E061
:1016E0000B210020FFF756FAB8616649BA69134624
:1016F0005B0013449B000B4408331B68002B2AD06B
:1017000000233B611BE0BB695A1C5F4B83FB021348
:101710005910D317C91A0B465B000B449B00D31A10
:10172000BB615849BA6913465B0013449B000B44E4
:1017300008331B68002B06D03B6901333B613B69D2
:101740000B2BE0DD00E000BF7B6901337B617B692F
:10175000052BC5DD00E000BF4A49BA6913465B00AE
:1017600013449B000B4408331B68002B7BD1474973
:10177000BA6913465B0013440B4402331B78002BF9
:1017800071D04249BA6913465B0013440B441B787D
:1017900008337B603D49BA6913465B0013440B4430
:1017A00001331B7802333B600023FB602FE00023F2
:1017B000BB6026E03649FB689A00BB68134431F8E9
:1017C0001330002B1AD07A68FB681344002B15DB0A
:1017D0007A68FB681A443968BB6819442C4CFB686A
:1017E0009800BB68034434F813402A4813465B0052
:1017F00013445B010B44224620F81320BB680133DD
:10180000BB60BB68032BD5DDFB680133FB60FB6865
:10181000032BCCDD1B49BA6913465B0013449B00C4
:101820000B447A681A601749BA6913465B0013447F
:101830009B000B4404333A681A601249BA69134694
:101840005B0013449B000B44083301221A60124BC7
:101850001B680133104A13600F4B1B68062B02D123
:101860000E4B00221A70FB690133FB61FB69052BEB
:1018700004DC0A4B1B78002B7FF42CAF00BF24370D
:10188000BD4690BD84F20020ABAAAA2A5CF20020DB
:10189000040000205C620020A8F300202400002047
:1018A000B0B485B000AF786039600023FB6036E0EB
:1018B0000023BB602DE01E49FB689A00BB681344FF
:1018C00031F81330002B21D07A68FB681344002BC9
:1018D0001CDB7A68FB68D1183A68BB68D4187A6850
:1018E000FB681A443868BB681844124D0B465B000D
:1018F0000B445B01234435F813400F4913465B004A
:1019000013445B010344224621F81320BB680133D2
:10191000BB60BB68032BCEDDFB680133FB60FB685B
:10192000032BC5DD00BF00BF1437BD46B0BC7047F8
:1019300004000020580200205C62002090B58BB0AB
:1019400004AF00237B61C5E067497A6913465B00F9
:1019500013449B000B4408331B68002B00F0B78036
:1019600061497A6913465B0013449B000B441B6872
:101970007B605D497A6913465B0013449B000B440E
:1019800004331B683B6039687868FFF789FF0123DF
:10199000FB74564B1B781846554B1B78194604238D
:1019A0000393042302933B6801937B68009308230D
:1019B0000D22FFF7E7F90346002B14D14B4B1B78A0
:1019C0001A464B4B1B781946082303930D230293A9
:1019D000019100920423042239687868FFF7D2F954
:1019E0000346002B18D0FFF75DFA3F497A6913468A
:1019F0005B0013449B000B44083300221A603D4BEC
:101A000000221A703C4B1B68013B3B4A13603B4B66
:101A100001221A700023FB74FB7C002B57D07B68DB
:101A200003337B607B685B2B3FDC0023FB602FE094
:101A30000023BB6026E03249FB689A00BB68134470
:101A400031F81330002B1AD07A68FB6813445F2BEF
:101A500015DC7A68FB681A443968BB681944284C5D
:101A6000FB689800BB68034434F8134025481346CC
:101A70005B0013445B010B44224620F81320BB6833
:101A80000133BB60BB68032BD5DDFB680133FB6012
:101A9000FB68032BCCDD14497A6913465B001344C1
:101AA0009B000B447A681A6011E00F497A6913466B
:101AB0005B0013449B000B44083300221A600D4B5B
:101AC00001221A700C4B1B68013B0B4A13607B69A7
:101AD00001337B617B690B2B7FF736AF00BF00BF03
:101AE0001C37BD4690BD00BF84F2002000000020DE
:101AF0000100002024000020A8F300205402002050
:101B0000040000205C62002080B584B000AF414B2F
:101B10004C221A70404B2C221A700023FB601FE0ED
:101B20003E49FA6813465B0013440B44023300221B
:101B30001A703B49FA6813465B0013449B000B4440
:101B4000083300221A603749FA6813465B001344D1
:101B50009B000B44083300221A60FB680133FB60D2
:101B6000FB680B2BDCDD0023BB600CE02D49BA6861
:101B700013465B0013449B000B44083300221A6099
:101B8000BB680133BB60BB680B2BEFDD264B00222B
:101B90001A60264B00221A60254B01221A70254B31
:101BA00001221A70244B00221A70244B00221A7052
:101BB00000237B6020E000233B6017E020497A6827
:101BC00013465B0013445B013A68134431F8130079
:101BD0001C497A6813465B0013445B013A6813445E
:101BE000024621F813203B6801333B603B685F2BC2
:101BF000E4DD7B6801337B607B685F2BDBDDFEF718
:101C0000E1FFFFF709F90C20FFF7F8F900BF1037E3
:101C1000BD4680BD00000020010000205CF20020D5
:101C200084F2002014F30020A8F30020A4F3002085
:101C3000240000200200002080F200205402002036
:101C4000580200205C6200200A4B0B4819680B4ABE
:101C5000D1F89830D1F89CC003FB00F002FB0C00D7
:101C6000A3FB0232013340EB0200C1E9263020F031
:101C700000407047280000202DF451582D7F954CCE
:101C800070B50F4B0F4DAB42A3EB050607D0B61056
:101C9000002455F8043B01349847A642F9D800F0D7
:101CA00027F9094D094B5E1BAB424FEAA60606D049
:101CB000002455F8043B01349847A642F9D870BD7A
:101CC000FC1E0000FC1E0000FC1E0000041F0000A3
:101CD000704700BF704700BF024B13B1024800F0CD
:101CE00005B8704700000000F91C00000023014601
:101CF0001A46184600F014B838B5074D074C2C1B8F
:101D0000A41005D0013C55F8043D9847002CF9D1AA
:101D1000BDE8384000F0F6B8141F0000101F0000A6
:101D20002DE9F8431B4D0646286898460F46914614
:101D3000FFF7CEFF184B1C681CB3286865681F2D81
:101D400022DC4EB96B1C0235636044F82570FFF746
:101D5000C1FF0020BDE8F88304EB85010123C1F831
:101D60008890D4F88821AB401A43022EC4F8882109
:101D7000C1F80881E6D1D4F88C211A43C4F88C212B
:101D8000E0E7064C1C60D8E7FFF7A4FF4FF0FF30F8
:101D9000E0E700BF30020020E8F40020ECF400206F
:101DA00000000000000018C618C600000000000077
:101DB0000000000018C6FFFFFFFF18C6000000006B
:101DC000000018C6FFFFFF07FF07FFFF18C600004F
:101DD0000000FFFFFF071F001F00FF07FFFF0000BD
:101DE0001084FFFFFF071F001F00FF07FFFF108485
:101DF00018C6FFFFFF07FF07FF07FF07FFFF18C613
:101E0000FFFFFFFFFFFFFF07FF07FFFFFFFFFFFFD2
:101E1000FFFF18C6FFFFE007E007FFFF18C6FFFF40
:101E200018C618C6E007E007E007E00718C618C69E
:101E30001084E007FFFF00F100F1FFFFE0071084CE
:101E4000E007E007000000F100F10000E007E00714
:101E5000E0070000000000F100F100000000E007D2
:101E600000000000000000F100F100000000000090
:101E700000000000E0FFE0FFE0FFE0FF00000000E6
:101E80000000E0FFE0FFE0FFE0FFE0FFE0FF000018
:101E9000E0FFE0FF80FD80FD80FD80FDE0FFE0FFD2
:101EA000E0FF80FD80FD0000000080FD80FDE0FF80
:101EB000E0FF80FD000000000000000080FDE0FF6A
:101EC000E0FF80FD80FD80FD80FD80FD80FDE0FF66
:101ED0000000E0FFE0FFE0FFE0FFE0FFE0FF0000C8
:101EE00000000000E0FF00000000E0FF0000000034
:101EF000F8B500BFF8BC08BC9E467047D91C00006E
:101F0000C9020000F8B500BFF8BC08BC9E46704787
:041F1000A10200002A
:101F14004C2C01000000FF07FF070000FF07FF072C
:101F2400FF07FF07FF07FF07FF07FF070000FF0783
:101F3400FF07000001000000300000200000000046
:101F440000000000ACF3002014F400207CF4002016
:101F5400000000000000000000000000000000007D
:101F6400000000000000000000000000000000006D
:101F7400000000000000000000000000000000005D
:101F8400000000000000000000000000000000004D
:101F9400000000000000000000000000000000003D
:101FA400000000000000000000000000000000002D
:101FB400000000000000000000000000000000001D
:101FC400000000000000000000000000000000000D
:101FD40000000000000000000100000000000000FC
:101FE4000E33CDAB34126DE6ECDE05000B000000C1
:101FF40000000000000000000000000000000000DD
:1020040000000000000000000000000000000000CC
:1020140000000000000000000000000000000000BC
:1020240000000000000000000000000000000000AC
:10203400000000000000000000000000000000009C
:10204400000000000000000000000000000000008C
:10205400000000000000000000000000000000007C
:10206400000000000000000000000000000000006C
:10207400000000000000000000000000000000005C
:10208400000000000000000000000000000000004C
:10209400000000000000000000000000000000003C
:1020A400000000000000000000000000000000002C
:1020B400000000000000000000000000000000001C
:1020C400000000000000000000000000000000000C
:1020D40000000000000000000000000000000000FC
:1020E40000000000000000000000000000000000EC
:1020F40000000000000000000000000000000000DC
:1021040000000000000000000000000000000000CB
:1021140000000000000000000000000000000000BB
:1021240000000000000000000000000000000000AB
:10213400000000000000000000000000000000009B
:04214400E4F400209F
:00000001FF
